{"abi":[{"type":"function","name":"getProof","inputs":[{"name":"data","type":"bytes32[]","internalType":"bytes32[]"},{"name":"node","type":"uint256","internalType":"uint256"}],"outputs":[{"name":"","type":"bytes32[]","internalType":"bytes32[]"}],"stateMutability":"pure"},{"type":"function","name":"getRoot","inputs":[{"name":"data","type":"bytes32[]","internalType":"bytes32[]"}],"outputs":[{"name":"","type":"bytes32","internalType":"bytes32"}],"stateMutability":"pure"},{"type":"function","name":"hashLeafPairs","inputs":[{"name":"left","type":"bytes32","internalType":"bytes32"},{"name":"right","type":"bytes32","internalType":"bytes32"}],"outputs":[{"name":"_hash","type":"bytes32","internalType":"bytes32"}],"stateMutability":"pure"},{"type":"function","name":"log2ceil","inputs":[{"name":"x","type":"uint256","internalType":"uint256"}],"outputs":[{"name":"","type":"uint256","internalType":"uint256"}],"stateMutability":"pure"},{"type":"function","name":"log2ceilBitMagic","inputs":[{"name":"x","type":"uint256","internalType":"uint256"}],"outputs":[{"name":"","type":"uint256","internalType":"uint256"}],"stateMutability":"pure"},{"type":"function","name":"verifyProof","inputs":[{"name":"root","type":"bytes32","internalType":"bytes32"},{"name":"proof","type":"bytes32[]","internalType":"bytes32[]"},{"name":"valueToProve","type":"bytes32","internalType":"bytes32"}],"outputs":[{"name":"","type":"bool","internalType":"bool"}],"stateMutability":"pure"}],"bytecode":{"object":"0x608060405234801561000f575f80fd5b50610dc38061001d5f395ff3fe608060405234801561000f575f80fd5b5060043610610060575f3560e01c80632e08d6021461006457806358161a4214610094578063b8616195146100c4578063cf06c7b7146100f4578063dd1d259914610124578063e27d515314610154575b5f80fd5b61007e600480360381019061007991906108a4565b610184565b60405161008b91906108fa565b60405180910390f35b6100ae60048036038101906100a99190610913565b610206565b6040516100bb9190610999565b60405180910390f35b6100de60048036038101906100d991906109e5565b61025a565b6040516100eb9190610af6565b60405180910390f35b61010e60048036038101906101099190610b16565b6103f3565b60405161011b9190610b50565b60405180910390f35b61013e60048036038101906101399190610b69565b610562565b60405161014b91906108fa565b60405180910390f35b61016e60048036038101906101699190610b16565b61058e565b60405161017b9190610b50565b60405180910390f35b5f60018251116101c9576040517f08c379a00000000000000000000000000000000000000000000000000000000081526004016101c090610c27565b60405180910390fd5b5b6001825111156101e4576101dd826105cb565b91506101ca565b815f815181106101f7576101f6610c45565b5b60200260200101519050919050565b5f808290505f845190505f5b8181101561024b5761023e8387838151811061023157610230610c45565b5b6020026020010151610562565b9250806001019050610212565b50818614925050509392505050565b606060018351116102a0576040517f08c379a000000000000000000000000000000000000000000000000000000000815260040161029790610ce2565b60405180910390fd5b5f6102ab84516103f3565b67ffffffffffffffff8111156102c4576102c3610735565b5b6040519080825280602002602001820160405280156102f25781602001602082028036833780820191505090505b5090505f5b6001855111156103e85760018085160361034d5784600185038151811061032157610320610c45565b5b602002602001015182828151811061033c5761033b610c45565b5b6020026020010181815250506103be565b8451600185010361037f575f801b82828151811061036e5761036d610c45565b5b6020026020010181815250506103bd565b84600185018151811061039557610394610c45565b5b60200260200101518282815181106103b0576103af610c45565b5b6020026020010181815250505b5b806001019050600284816103d5576103d4610d00565b5b0493506103e1856105cb565b94506102f7565b819250505092915050565b5f60018211610404575f905061055d565b5f80839050700100000000000000000000000000000000841061043857608084901c93506080826104359190610d5a565b91505b68010000000000000000841061045f57604084901c935060408261045c9190610d5a565b91505b640100000000841061048257602084901c935060208261047f9190610d5a565b91505b6201000084106104a357601084901c93506010826104a09190610d5a565b91505b61010084106104c357600884901c93506008826104c09190610d5a565b91505b601084106104e257600484901c93506004826104df9190610d5a565b91505b6004841061050157600284901c93506002826104fe9190610d5a565b91505b60028410610519576001826105169190610d5a565b91505b5f81600183196105299190610d5a565b169050818114801561053a57505f83115b1561054a5782935050505061055d565b6001836105579190610d5a565b93505050505b919050565b5f8183105f811461057957835f5282602052610581565b825f52836020525b5060405f20905092915050565b5f805f90505f83846001861901161490505b5f8411156105bc57600184901c935081806001019250506105a0565b80820391508192505050919050565b6060805f835190505f60018083161490505f600260018401816105f1576105f0610d00565b5b0490508067ffffffffffffffff81111561060e5761060d610735565b5b60405190808252806020026020018201604052801561063c5781602001602082028036833780820191505090505b5093505f805b600185038110156106be5761068e88828151811061066357610662610c45565b5b602002602001015189600184018151811061068157610680610c45565b5b6020026020010151610562565b8683815181106106a1576106a0610c45565b5b602002602001018181525050816001019150600281019050610642565b508215610703578660018503815181106106db576106da610c45565b5b60200260200101518582815181106106f6576106f5610c45565b5b6020026020010181815250505b5050505080915050919050565b5f604051905090565b5f80fd5b5f80fd5b5f80fd5b5f601f19601f8301169050919050565b7f4e487b71000000000000000000000000000000000000000000000000000000005f52604160045260245ffd5b61076b82610725565b810181811067ffffffffffffffff8211171561078a57610789610735565b5b80604052505050565b5f61079c610710565b90506107a88282610762565b919050565b5f67ffffffffffffffff8211156107c7576107c6610735565b5b602082029050602081019050919050565b5f80fd5b5f819050919050565b6107ee816107dc565b81146107f8575f80fd5b50565b5f81359050610809816107e5565b92915050565b5f61082161081c846107ad565b610793565b90508083825260208201905060208402830185811115610844576108436107d8565b5b835b8181101561086d578061085988826107fb565b845260208401935050602081019050610846565b5050509392505050565b5f82601f83011261088b5761088a610721565b5b813561089b84826020860161080f565b91505092915050565b5f602082840312156108b9576108b8610719565b5b5f82013567ffffffffffffffff8111156108d6576108d561071d565b5b6108e284828501610877565b91505092915050565b6108f4816107dc565b82525050565b5f60208201905061090d5f8301846108eb565b92915050565b5f805f6060848603121561092a57610929610719565b5b5f610937868287016107fb565b935050602084013567ffffffffffffffff8111156109585761095761071d565b5b61096486828701610877565b9250506040610975868287016107fb565b9150509250925092565b5f8115159050919050565b6109938161097f565b82525050565b5f6020820190506109ac5f83018461098a565b92915050565b5f819050919050565b6109c4816109b2565b81146109ce575f80fd5b50565b5f813590506109df816109bb565b92915050565b5f80604083850312156109fb576109fa610719565b5b5f83013567ffffffffffffffff811115610a1857610a1761071d565b5b610a2485828601610877565b9250506020610a35858286016109d1565b9150509250929050565b5f81519050919050565b5f82825260208201905092915050565b5f819050602082019050919050565b610a71816107dc565b82525050565b5f610a828383610a68565b60208301905092915050565b5f602082019050919050565b5f610aa482610a3f565b610aae8185610a49565b9350610ab983610a59565b805f5b83811015610ae9578151610ad08882610a77565b9750610adb83610a8e565b925050600181019050610abc565b5085935050505092915050565b5f6020820190508181035f830152610b0e8184610a9a565b905092915050565b5f60208284031215610b2b57610b2a610719565b5b5f610b38848285016109d1565b91505092915050565b610b4a816109b2565b82525050565b5f602082019050610b635f830184610b41565b92915050565b5f8060408385031215610b7f57610b7e610719565b5b5f610b8c858286016107fb565b9250506020610b9d858286016107fb565b9150509250929050565b5f82825260208201905092915050565b7f776f6e27742067656e657261746520726f6f7420666f72207a65726f206c65615f8201527f6673000000000000000000000000000000000000000000000000000000000000602082015250565b5f610c11602283610ba7565b9150610c1c82610bb7565b604082019050919050565b5f6020820190508181035f830152610c3e81610c05565b9050919050565b7f4e487b71000000000000000000000000000000000000000000000000000000005f52603260045260245ffd5b7f776f6e27742067656e65726174652070726f6f6620666f72207a65726f206c655f8201527f6166730000000000000000000000000000000000000000000000000000000000602082015250565b5f610ccc602383610ba7565b9150610cd782610c72565b604082019050919050565b5f6020820190508181035f830152610cf981610cc0565b9050919050565b7f4e487b71000000000000000000000000000000000000000000000000000000005f52601260045260245ffd5b7f4e487b71000000000000000000000000000000000000000000000000000000005f52601160045260245ffd5b5f610d64826109b2565b9150610d6f836109b2565b9250828201905080821115610d8757610d86610d2d565b5b9291505056fea2646970667358221220955792c2032db31d2db53f8e3a9fa6aa7966c3ace4539060d117c28b58c7d41364736f6c63430008180033","linkReferences":{}},"methodIdentifiers":{"getProof(bytes32[],uint256)":"b8616195","getRoot(bytes32[])":"2e08d602","hashLeafPairs(bytes32,bytes32)":"dd1d2599","log2ceil(uint256)":"e27d5153","log2ceilBitMagic(uint256)":"cf06c7b7","verifyProof(bytes32,bytes32[],bytes32)":"58161a42"},"id":63}