{"abi":[{"type":"constructor","inputs":[{"name":"_name","type":"string","internalType":"string"},{"name":"_symbol","type":"string","internalType":"string"}],"stateMutability":"nonpayable"},{"type":"function","name":"approve","inputs":[{"name":"account","type":"address","internalType":"address"},{"name":"id","type":"uint256","internalType":"uint256"}],"outputs":[],"stateMutability":"payable"},{"type":"function","name":"balanceOf","inputs":[{"name":"owner","type":"address","internalType":"address"}],"outputs":[{"name":"result","type":"uint256","internalType":"uint256"}],"stateMutability":"view"},{"type":"function","name":"getApproved","inputs":[{"name":"id","type":"uint256","internalType":"uint256"}],"outputs":[{"name":"result","type":"address","internalType":"address"}],"stateMutability":"view"},{"type":"function","name":"isApprovedForAll","inputs":[{"name":"owner","type":"address","internalType":"address"},{"name":"operator","type":"address","internalType":"address"}],"outputs":[{"name":"result","type":"bool","internalType":"bool"}],"stateMutability":"view"},{"type":"function","name":"mint","inputs":[{"name":"to","type":"address","internalType":"address"},{"name":"tokenId","type":"uint256","internalType":"uint256"}],"outputs":[],"stateMutability":"nonpayable"},{"type":"function","name":"name","inputs":[],"outputs":[{"name":"","type":"string","internalType":"string"}],"stateMutability":"view"},{"type":"function","name":"nftName","inputs":[],"outputs":[{"name":"","type":"string","internalType":"string"}],"stateMutability":"view"},{"type":"function","name":"nftSymbol","inputs":[],"outputs":[{"name":"","type":"string","internalType":"string"}],"stateMutability":"view"},{"type":"function","name":"ownerOf","inputs":[{"name":"id","type":"uint256","internalType":"uint256"}],"outputs":[{"name":"result","type":"address","internalType":"address"}],"stateMutability":"view"},{"type":"function","name":"safeTransferFrom","inputs":[{"name":"from","type":"address","internalType":"address"},{"name":"to","type":"address","internalType":"address"},{"name":"id","type":"uint256","internalType":"uint256"}],"outputs":[],"stateMutability":"payable"},{"type":"function","name":"safeTransferFrom","inputs":[{"name":"from","type":"address","internalType":"address"},{"name":"to","type":"address","internalType":"address"},{"name":"id","type":"uint256","internalType":"uint256"},{"name":"data","type":"bytes","internalType":"bytes"}],"outputs":[],"stateMutability":"payable"},{"type":"function","name":"setApprovalForAll","inputs":[{"name":"operator","type":"address","internalType":"address"},{"name":"isApproved","type":"bool","internalType":"bool"}],"outputs":[],"stateMutability":"nonpayable"},{"type":"function","name":"supportsInterface","inputs":[{"name":"interfaceId","type":"bytes4","internalType":"bytes4"}],"outputs":[{"name":"result","type":"bool","internalType":"bool"}],"stateMutability":"view"},{"type":"function","name":"symbol","inputs":[],"outputs":[{"name":"","type":"string","internalType":"string"}],"stateMutability":"view"},{"type":"function","name":"tokenURI","inputs":[{"name":"tokenId","type":"uint256","internalType":"uint256"}],"outputs":[{"name":"","type":"string","internalType":"string"}],"stateMutability":"view"},{"type":"function","name":"transferFrom","inputs":[{"name":"from","type":"address","internalType":"address"},{"name":"to","type":"address","internalType":"address"},{"name":"id","type":"uint256","internalType":"uint256"}],"outputs":[],"stateMutability":"payable"},{"type":"event","name":"Approval","inputs":[{"name":"owner","type":"address","indexed":true,"internalType":"address"},{"name":"account","type":"address","indexed":true,"internalType":"address"},{"name":"id","type":"uint256","indexed":true,"internalType":"uint256"}],"anonymous":false},{"type":"event","name":"ApprovalForAll","inputs":[{"name":"owner","type":"address","indexed":true,"internalType":"address"},{"name":"operator","type":"address","indexed":true,"internalType":"address"},{"name":"isApproved","type":"bool","indexed":false,"internalType":"bool"}],"anonymous":false},{"type":"event","name":"Transfer","inputs":[{"name":"from","type":"address","indexed":true,"internalType":"address"},{"name":"to","type":"address","indexed":true,"internalType":"address"},{"name":"id","type":"uint256","indexed":true,"internalType":"uint256"}],"anonymous":false},{"type":"error","name":"AccountBalanceOverflow","inputs":[]},{"type":"error","name":"BalanceQueryForZeroAddress","inputs":[]},{"type":"error","name":"NotOwnerNorApproved","inputs":[]},{"type":"error","name":"TokenAlreadyExists","inputs":[]},{"type":"error","name":"TokenDoesNotExist","inputs":[]},{"type":"error","name":"TransferFromIncorrectOwner","inputs":[]},{"type":"error","name":"TransferToNonERC721ReceiverImplementer","inputs":[]},{"type":"error","name":"TransferToZeroAddress","inputs":[]}],"bytecode":{"object":"0x608060405234801562000010575f80fd5b50604051620016fb380380620016fb8339818101604052810190620000369190620001e6565b815f9081620000469190620004a0565b508060019081620000589190620004a0565b50505062000584565b5f604051905090565b5f80fd5b5f80fd5b5f80fd5b5f80fd5b5f601f19601f8301169050919050565b7f4e487b71000000000000000000000000000000000000000000000000000000005f52604160045260245ffd5b620000c2826200007a565b810181811067ffffffffffffffff82111715620000e457620000e36200008a565b5b80604052505050565b5f620000f862000061565b9050620001068282620000b7565b919050565b5f67ffffffffffffffff8211156200012857620001276200008a565b5b62000133826200007a565b9050602081019050919050565b5f5b838110156200015f57808201518184015260208101905062000142565b5f8484015250505050565b5f620001806200017a846200010b565b620000ed565b9050828152602081018484840111156200019f576200019e62000076565b5b620001ac84828562000140565b509392505050565b5f82601f830112620001cb57620001ca62000072565b5b8151620001dd8482602086016200016a565b91505092915050565b5f8060408385031215620001ff57620001fe6200006a565b5b5f83015167ffffffffffffffff8111156200021f576200021e6200006e565b5b6200022d85828601620001b4565b925050602083015167ffffffffffffffff8111156200025157620002506200006e565b5b6200025f85828601620001b4565b9150509250929050565b5f81519050919050565b7f4e487b71000000000000000000000000000000000000000000000000000000005f52602260045260245ffd5b5f6002820490506001821680620002b857607f821691505b602082108103620002ce57620002cd62000273565b5b50919050565b5f819050815f5260205f209050919050565b5f6020601f8301049050919050565b5f82821b905092915050565b5f60088302620003327fffffffffffffffffffffffffffffffffffffffffffffffffffffffffffffffff82620002f5565b6200033e8683620002f5565b95508019841693508086168417925050509392505050565b5f819050919050565b5f819050919050565b5f62000388620003826200037c8462000356565b6200035f565b62000356565b9050919050565b5f819050919050565b620003a38362000368565b620003bb620003b2826200038f565b84845462000301565b825550505050565b5f90565b620003d1620003c3565b620003de81848462000398565b505050565b5b818110156200040557620003f95f82620003c7565b600181019050620003e4565b5050565b601f82111562000454576200041e81620002d4565b6200042984620002e6565b8101602085101562000439578190505b620004516200044885620002e6565b830182620003e3565b50505b505050565b5f82821c905092915050565b5f620004765f198460080262000459565b1980831691505092915050565b5f62000490838362000465565b9150826002028217905092915050565b620004ab8262000269565b67ffffffffffffffff811115620004c757620004c66200008a565b5b620004d38254620002a0565b620004e082828562000409565b5f60209050601f83116001811462000516575f841562000501578287015190505b6200050d858262000483565b8655506200057c565b601f1984166200052686620002d4565b5f5b828110156200054f5784890151825560018201915060208501945060208101905062000528565b868310156200056f57848901516200056b601f89168262000465565b8355505b6001600288020188555050505b505050505050565b61116980620005925f395ff3fe6080604052600436106100f1575f3560e01c806342842e0e11610089578063a22cb46511610058578063a22cb46514610309578063b88d4fde14610331578063c87b56dd1461034d578063e985e9c514610389576100f1565b806342842e0e1461024b5780636352211e1461026757806370a08231146102a357806395d89b41146102df576100f1565b8063095ea7b3116100c5578063095ea7b3146101c157806312c0f3d3146101dd57806323b872dd1461020757806340c10f1914610223576100f1565b80628bfb00146100f557806301ffc9a71461011f57806306fdde031461015b578063081812fc14610185575b5f80fd5b348015610100575f80fd5b506101096103c5565b6040516101169190610caf565b60405180910390f35b34801561012a575f80fd5b5061014560048036038101906101409190610d2c565b610450565b6040516101529190610d71565b60405180910390f35b348015610166575f80fd5b5061016f610474565b60405161017c9190610caf565b60405180910390f35b348015610190575f80fd5b506101ab60048036038101906101a69190610dbd565b610503565b6040516101b89190610e27565b60405180910390f35b6101db60048036038101906101d69190610e6a565b610556565b005b3480156101e8575f80fd5b506101f1610565565b6040516101fe9190610caf565b60405180910390f35b610221600480360381019061021c9190610ea8565b6105f1565b005b34801561022e575f80fd5b5061024960048036038101906102449190610e6a565b61071b565b005b61026560048036038101906102609190610ea8565b610729565b005b348015610272575f80fd5b5061028d60048036038101906102889190610dbd565b610762565b60405161029a9190610e27565b60405180910390f35b3480156102ae575f80fd5b506102c960048036038101906102c49190610ef8565b610785565b6040516102d69190610f32565b60405180910390f35b3480156102ea575f80fd5b506102f36107d2565b6040516103009190610caf565b60405180910390f35b348015610314575f80fd5b5061032f600480360381019061032a9190610f75565b610862565b005b61034b60048036038101906103469190611014565b6108b5565b005b348015610358575f80fd5b50610373600480360381019061036e9190610dbd565b610925565b6040516103809190610caf565b60405180910390f35b348015610394575f80fd5b506103af60048036038101906103aa9190611098565b610964565b6040516103bc9190610d71565b60405180910390f35b5f80546103d190611103565b80601f01602080910402602001604051908101604052809291908181526020018280546103fd90611103565b80156104485780601f1061041f57610100808354040283529160200191610448565b820191905f5260205f20905b81548152906001019060200180831161042b57829003601f168201915b505050505081565b5f8160e01c635b5e139f81146380ac58cd82146301ffc9a783141717915050919050565b60605f805461048290611103565b80601f01602080910402602001604051908101604052809291908181526020018280546104ae90611103565b80156104f95780601f106104d0576101008083540402835291602001916104f9565b820191905f5260205f20905b8154815290600101906020018083116104dc57829003601f168201915b5050505050905090565b5f815f527f7d8825530a5a2e7a000000000000000000000000000000000000000000000000601c5260205f2082018201805460601b6105495763ceea21b65f526004601cfd5b8060010154915050919050565b610561338383610986565b5050565b6001805461057290611103565b80601f016020809104026020016040519081016040528092919081815260200182805461059e90611103565b80156105e95780601f106105c0576101008083540402835291602001916105e9565b820191905f5260205f20905b8154815290600101906020018083116105cc57829003601f168201915b505050505081565b6105fc838383610a36565b5f1960601c83811693508281169250815f52337f7d8825530a5a2e7a00000000000000000000000000000000000000000000000017601c5260205f20820182018054808316868114810261065f5767ceea21b6a1148100811560021b526004601cfd5b865f5282600101548033148833141761068a576030600c205461068957634b6e7f185f526004601cfd5b5b8015610697575f84600101555b5085871882188355601c600c206001815403815550855f52601c600c20600181540163ffffffff811688026106db5767ea553b3401336cea881560021b526004601cfd5b80825550508486887fddf252ad1be2c89b69c2b068fc378daa952ba7f163c4a11628f55a4df523b3ef5f38a450505050610716838383610a3b565b505050565b6107258282610a40565b5050565b6107348383836105f1565b61073d82610a5d565b1561075d5761075c83838360405180602001604052805f815250610a67565b5b505050565b5f61076c82610af1565b9050806107805763ceea21b65f526004601cfd5b919050565b5f8161079857638f4eb6045f526004601cfd5b7f7d8825530a5a2e7a000000000000000000000000000000000000000000000000601c52815f5263ffffffff601c600c2054169050919050565b6060600180546107e190611103565b80601f016020809104026020016040519081016040528092919081815260200182805461080d90611103565b80156108585780601f1061082f57610100808354040283529160200191610858565b820191905f5260205f20905b81548152906001019060200180831161083b57829003601f168201915b5050505050905090565b801515905081601c52670a5a2e7a00000000600852335f52806030600c2055805f528160601b60601c337f17307eab39ab6107e8899845ad3d59bd9653f200f220920489ca2b5937696c3160205fa35050565b6108c08585856105f1565b6108c984610a5d565b1561091e5761091d85858585858080601f0160208091040260200160405190810160405280939291908181526020018383808284375f81840152601f19601f82011690508083019250505050505050610a67565b5b5050505050565b60606040518060400160405280601481526020017f68747470733a2f2f6578616d706c652e636f6d2f0000000000000000000000008152509050919050565b5f81601c52670a5a2e7a00000000600852825f526030600c2054905092915050565b5f1960601c82811692508381169350815f52837f7d8825530a5a2e7a00000000000000000000000000000000000000000000000017601c5260205f208201820180548216806109dc5763ceea21b65f526004601cfd5b808614861517610a0157805f526030600c2054610a0057634b6e7f185f526004601cfd5b5b8482600101558385827f8c5be1e5ebec7d5bd14f71427d1e84f3dd0314c0f7b2291e5b200ac8c7c3b9255f38a4505050505050565b505050565b505050565b610a59828260405180602001604052805f815250610b2f565b5050565b5f813b9050919050565b60405163150b7a028082523360208301528560601b60601c604083015283606083015260808083015282518060a08401528015610aae578060c08401826020870160045afa505b60208360a48301601c86015f8a5af1610ad0573d15610acf573d5f843e3d83fd5b5b8160e01b835114610ae85763d1a57ed65f526004601cfd5b50505050505050565b5f815f527f7d8825530a5a2e7a000000000000000000000000000000000000000000000000601c5260205f20820182015460601b60601c9050919050565b610b398383610b59565b610b4283610a5d565b15610b5457610b535f848484610a67565b5b505050565b610b645f8383610a36565b8160601b60601c9150805f527f7d8825530a5a2e7a000000000000000000000000000000000000000000000000601c5260205f208101810180548060601b15610bb45763c991cbb15f526004601cfd5b8381178255835f52601c600c20600181540163ffffffff81168602610be85767ea553b3401336cea861560021b526004601cfd5b808255505082845f7fddf252ad1be2c89b69c2b068fc378daa952ba7f163c4a11628f55a4df523b3ef5f38a45050610c215f8383610a3b565b5050565b5f81519050919050565b5f82825260208201905092915050565b5f5b83811015610c5c578082015181840152602081019050610c41565b5f8484015250505050565b5f601f19601f8301169050919050565b5f610c8182610c25565b610c8b8185610c2f565b9350610c9b818560208601610c3f565b610ca481610c67565b840191505092915050565b5f6020820190508181035f830152610cc78184610c77565b905092915050565b5f80fd5b5f80fd5b5f7fffffffff0000000000000000000000000000000000000000000000000000000082169050919050565b610d0b81610cd7565b8114610d15575f80fd5b50565b5f81359050610d2681610d02565b92915050565b5f60208284031215610d4157610d40610ccf565b5b5f610d4e84828501610d18565b91505092915050565b5f8115159050919050565b610d6b81610d57565b82525050565b5f602082019050610d845f830184610d62565b92915050565b5f819050919050565b610d9c81610d8a565b8114610da6575f80fd5b50565b5f81359050610db781610d93565b92915050565b5f60208284031215610dd257610dd1610ccf565b5b5f610ddf84828501610da9565b91505092915050565b5f73ffffffffffffffffffffffffffffffffffffffff82169050919050565b5f610e1182610de8565b9050919050565b610e2181610e07565b82525050565b5f602082019050610e3a5f830184610e18565b92915050565b610e4981610e07565b8114610e53575f80fd5b50565b5f81359050610e6481610e40565b92915050565b5f8060408385031215610e8057610e7f610ccf565b5b5f610e8d85828601610e56565b9250506020610e9e85828601610da9565b9150509250929050565b5f805f60608486031215610ebf57610ebe610ccf565b5b5f610ecc86828701610e56565b9350506020610edd86828701610e56565b9250506040610eee86828701610da9565b9150509250925092565b5f60208284031215610f0d57610f0c610ccf565b5b5f610f1a84828501610e56565b91505092915050565b610f2c81610d8a565b82525050565b5f602082019050610f455f830184610f23565b92915050565b610f5481610d57565b8114610f5e575f80fd5b50565b5f81359050610f6f81610f4b565b92915050565b5f8060408385031215610f8b57610f8a610ccf565b5b5f610f9885828601610e56565b9250506020610fa985828601610f61565b9150509250929050565b5f80fd5b5f80fd5b5f80fd5b5f8083601f840112610fd457610fd3610fb3565b5b8235905067ffffffffffffffff811115610ff157610ff0610fb7565b5b60208301915083600182028301111561100d5761100c610fbb565b5b9250929050565b5f805f805f6080868803121561102d5761102c610ccf565b5b5f61103a88828901610e56565b955050602061104b88828901610e56565b945050604061105c88828901610da9565b935050606086013567ffffffffffffffff81111561107d5761107c610cd3565b5b61108988828901610fbf565b92509250509295509295909350565b5f80604083850312156110ae576110ad610ccf565b5b5f6110bb85828601610e56565b92505060206110cc85828601610e56565b9150509250929050565b7f4e487b71000000000000000000000000000000000000000000000000000000005f52602260045260245ffd5b5f600282049050600182168061111a57607f821691505b60208210810361112d5761112c6110d6565b5b5091905056fea26469706673582212209376e25515b07443287495622d33d0e7b7e58329154252cec078771051cff65c64736f6c63430008180033","linkReferences":{}},"methodIdentifiers":{"approve(address,uint256)":"095ea7b3","balanceOf(address)":"70a08231","getApproved(uint256)":"081812fc","isApprovedForAll(address,address)":"e985e9c5","mint(address,uint256)":"40c10f19","name()":"06fdde03","nftName()":"008bfb00","nftSymbol()":"12c0f3d3","ownerOf(uint256)":"6352211e","safeTransferFrom(address,address,uint256)":"42842e0e","safeTransferFrom(address,address,uint256,bytes)":"b88d4fde","setApprovalForAll(address,bool)":"a22cb465","supportsInterface(bytes4)":"01ffc9a7","symbol()":"95d89b41","tokenURI(uint256)":"c87b56dd","transferFrom(address,address,uint256)":"23b872dd"},"id":64}