{"abi":[{"type":"constructor","inputs":[{"name":"_name","type":"string","internalType":"string"},{"name":"_symbol","type":"string","internalType":"string"}],"stateMutability":"nonpayable"},{"type":"function","name":"CLOCK_MODE","inputs":[],"outputs":[{"name":"","type":"string","internalType":"string"}],"stateMutability":"view"},{"type":"function","name":"allowance","inputs":[{"name":"owner","type":"address","internalType":"address"},{"name":"spender","type":"address","internalType":"address"}],"outputs":[{"name":"","type":"uint256","internalType":"uint256"}],"stateMutability":"view"},{"type":"function","name":"approve","inputs":[{"name":"spender","type":"address","internalType":"address"},{"name":"value","type":"uint256","internalType":"uint256"}],"outputs":[{"name":"","type":"bool","internalType":"bool"}],"stateMutability":"nonpayable"},{"type":"function","name":"balanceOf","inputs":[{"name":"account","type":"address","internalType":"address"}],"outputs":[{"name":"","type":"uint256","internalType":"uint256"}],"stateMutability":"view"},{"type":"function","name":"checkpoints","inputs":[{"name":"account","type":"address","internalType":"address"},{"name":"pos","type":"uint32","internalType":"uint32"}],"outputs":[{"name":"","type":"tuple","internalType":"struct Checkpoints.Checkpoint208","components":[{"name":"_key","type":"uint48","internalType":"uint48"},{"name":"_value","type":"uint208","internalType":"uint208"}]}],"stateMutability":"view"},{"type":"function","name":"clock","inputs":[],"outputs":[{"name":"","type":"uint48","internalType":"uint48"}],"stateMutability":"view"},{"type":"function","name":"decimals","inputs":[],"outputs":[{"name":"","type":"uint8","internalType":"uint8"}],"stateMutability":"view"},{"type":"function","name":"delegate","inputs":[{"name":"delegatee","type":"address","internalType":"address"}],"outputs":[],"stateMutability":"nonpayable"},{"type":"function","name":"delegateBySig","inputs":[{"name":"delegatee","type":"address","internalType":"address"},{"name":"nonce","type":"uint256","internalType":"uint256"},{"name":"expiry","type":"uint256","internalType":"uint256"},{"name":"v","type":"uint8","internalType":"uint8"},{"name":"r","type":"bytes32","internalType":"bytes32"},{"name":"s","type":"bytes32","internalType":"bytes32"}],"outputs":[],"stateMutability":"nonpayable"},{"type":"function","name":"delegates","inputs":[{"name":"account","type":"address","internalType":"address"}],"outputs":[{"name":"","type":"address","internalType":"address"}],"stateMutability":"view"},{"type":"function","name":"eip712Domain","inputs":[],"outputs":[{"name":"fields","type":"bytes1","internalType":"bytes1"},{"name":"name","type":"string","internalType":"string"},{"name":"version","type":"string","internalType":"string"},{"name":"chainId","type":"uint256","internalType":"uint256"},{"name":"verifyingContract","type":"address","internalType":"address"},{"name":"salt","type":"bytes32","internalType":"bytes32"},{"name":"extensions","type":"uint256[]","internalType":"uint256[]"}],"stateMutability":"view"},{"type":"function","name":"getPastTotalSupply","inputs":[{"name":"timepoint","type":"uint256","internalType":"uint256"}],"outputs":[{"name":"","type":"uint256","internalType":"uint256"}],"stateMutability":"view"},{"type":"function","name":"getPastVotes","inputs":[{"name":"account","type":"address","internalType":"address"},{"name":"timepoint","type":"uint256","internalType":"uint256"}],"outputs":[{"name":"","type":"uint256","internalType":"uint256"}],"stateMutability":"view"},{"type":"function","name":"getVotes","inputs":[{"name":"account","type":"address","internalType":"address"}],"outputs":[{"name":"","type":"uint256","internalType":"uint256"}],"stateMutability":"view"},{"type":"function","name":"mint","inputs":[{"name":"_to","type":"address","internalType":"address"},{"name":"_amount","type":"uint256","internalType":"uint256"}],"outputs":[],"stateMutability":"nonpayable"},{"type":"function","name":"name","inputs":[],"outputs":[{"name":"","type":"string","internalType":"string"}],"stateMutability":"view"},{"type":"function","name":"nonces","inputs":[{"name":"owner","type":"address","internalType":"address"}],"outputs":[{"name":"","type":"uint256","internalType":"uint256"}],"stateMutability":"view"},{"type":"function","name":"numCheckpoints","inputs":[{"name":"account","type":"address","internalType":"address"}],"outputs":[{"name":"","type":"uint32","internalType":"uint32"}],"stateMutability":"view"},{"type":"function","name":"symbol","inputs":[],"outputs":[{"name":"","type":"string","internalType":"string"}],"stateMutability":"view"},{"type":"function","name":"totalSupply","inputs":[],"outputs":[{"name":"","type":"uint256","internalType":"uint256"}],"stateMutability":"view"},{"type":"function","name":"transfer","inputs":[{"name":"to","type":"address","internalType":"address"},{"name":"value","type":"uint256","internalType":"uint256"}],"outputs":[{"name":"","type":"bool","internalType":"bool"}],"stateMutability":"nonpayable"},{"type":"function","name":"transferFrom","inputs":[{"name":"from","type":"address","internalType":"address"},{"name":"to","type":"address","internalType":"address"},{"name":"value","type":"uint256","internalType":"uint256"}],"outputs":[{"name":"","type":"bool","internalType":"bool"}],"stateMutability":"nonpayable"},{"type":"event","name":"Approval","inputs":[{"name":"owner","type":"address","indexed":true,"internalType":"address"},{"name":"spender","type":"address","indexed":true,"internalType":"address"},{"name":"value","type":"uint256","indexed":false,"internalType":"uint256"}],"anonymous":false},{"type":"event","name":"DelegateChanged","inputs":[{"name":"delegator","type":"address","indexed":true,"internalType":"address"},{"name":"fromDelegate","type":"address","indexed":true,"internalType":"address"},{"name":"toDelegate","type":"address","indexed":true,"internalType":"address"}],"anonymous":false},{"type":"event","name":"DelegateVotesChanged","inputs":[{"name":"delegate","type":"address","indexed":true,"internalType":"address"},{"name":"previousVotes","type":"uint256","indexed":false,"internalType":"uint256"},{"name":"newVotes","type":"uint256","indexed":false,"internalType":"uint256"}],"anonymous":false},{"type":"event","name":"EIP712DomainChanged","inputs":[],"anonymous":false},{"type":"event","name":"Transfer","inputs":[{"name":"from","type":"address","indexed":true,"internalType":"address"},{"name":"to","type":"address","indexed":true,"internalType":"address"},{"name":"value","type":"uint256","indexed":false,"internalType":"uint256"}],"anonymous":false},{"type":"error","name":"CheckpointUnorderedInsertion","inputs":[]},{"type":"error","name":"ECDSAInvalidSignature","inputs":[]},{"type":"error","name":"ECDSAInvalidSignatureLength","inputs":[{"name":"length","type":"uint256","internalType":"uint256"}]},{"type":"error","name":"ECDSAInvalidSignatureS","inputs":[{"name":"s","type":"bytes32","internalType":"bytes32"}]},{"type":"error","name":"ERC20ExceededSafeSupply","inputs":[{"name":"increasedSupply","type":"uint256","internalType":"uint256"},{"name":"cap","type":"uint256","internalType":"uint256"}]},{"type":"error","name":"ERC20InsufficientAllowance","inputs":[{"name":"spender","type":"address","internalType":"address"},{"name":"allowance","type":"uint256","internalType":"uint256"},{"name":"needed","type":"uint256","internalType":"uint256"}]},{"type":"error","name":"ERC20InsufficientBalance","inputs":[{"name":"sender","type":"address","internalType":"address"},{"name":"balance","type":"uint256","internalType":"uint256"},{"name":"needed","type":"uint256","internalType":"uint256"}]},{"type":"error","name":"ERC20InvalidApprover","inputs":[{"name":"approver","type":"address","internalType":"address"}]},{"type":"error","name":"ERC20InvalidReceiver","inputs":[{"name":"receiver","type":"address","internalType":"address"}]},{"type":"error","name":"ERC20InvalidSender","inputs":[{"name":"sender","type":"address","internalType":"address"}]},{"type":"error","name":"ERC20InvalidSpender","inputs":[{"name":"spender","type":"address","internalType":"address"}]},{"type":"error","name":"ERC5805FutureLookup","inputs":[{"name":"timepoint","type":"uint256","internalType":"uint256"},{"name":"clock","type":"uint48","internalType":"uint48"}]},{"type":"error","name":"ERC6372InconsistentClock","inputs":[]},{"type":"error","name":"InvalidAccountNonce","inputs":[{"name":"account","type":"address","internalType":"address"},{"name":"currentNonce","type":"uint256","internalType":"uint256"}]},{"type":"error","name":"InvalidShortString","inputs":[]},{"type":"error","name":"SafeCastOverflowedUintDowncast","inputs":[{"name":"bits","type":"uint8","internalType":"uint8"},{"name":"value","type":"uint256","internalType":"uint256"}]},{"type":"error","name":"StringTooLong","inputs":[{"name":"str","type":"string","internalType":"string"}]},{"type":"error","name":"VotesExpiredSignature","inputs":[{"name":"expiry","type":"uint256","internalType":"uint256"}]}],"bytecode":{"object":"0x61016060405234801562000011575f80fd5b5060405162003e9e38038062003e9e8339818101604052810190620000379190620003fb565b816040518060400160405280600181526020017f3100000000000000000000000000000000000000000000000000000000000000815250838381818160039081620000839190620006b5565b508060049081620000959190620006b5565b5050505050620000b06005836200015260201b90919060201c565b6101208181525050620000ce6006826200015260201b90919060201c565b6101408181525050818051906020012060e08181525050808051906020012061010081815250504660a081815250506200010d620001a760201b60201c565b608081815250503073ffffffffffffffffffffffffffffffffffffffff1660c08173ffffffffffffffffffffffffffffffffffffffff16815250505050505062000972565b5f60208351101562000177576200016f836200020360201b60201c565b9050620001a1565b8262000189836200026d60201b60201c565b5f019081620001999190620006b5565b5060ff5f1b90505b92915050565b5f7f8b73c3c69bb8fe3d512ecc4cf759cc79239f7b179b0ffacaa9a75d522b39400f60e051610100514630604051602001620001e895949392919062000807565b60405160208183030381529060405280519060200120905090565b5f80829050601f815111156200025257826040517f305a27a9000000000000000000000000000000000000000000000000000000008152600401620002499190620008b2565b60405180910390fd5b805181620002609062000903565b5f1c175f1b915050919050565b5f819050919050565b5f604051905090565b5f80fd5b5f80fd5b5f80fd5b5f80fd5b5f601f19601f8301169050919050565b7f4e487b71000000000000000000000000000000000000000000000000000000005f52604160045260245ffd5b620002d7826200028f565b810181811067ffffffffffffffff82111715620002f957620002f86200029f565b5b80604052505050565b5f6200030d62000276565b90506200031b8282620002cc565b919050565b5f67ffffffffffffffff8211156200033d576200033c6200029f565b5b62000348826200028f565b9050602081019050919050565b5f5b838110156200037457808201518184015260208101905062000357565b5f8484015250505050565b5f620003956200038f8462000320565b62000302565b905082815260208101848484011115620003b457620003b36200028b565b5b620003c184828562000355565b509392505050565b5f82601f830112620003e057620003df62000287565b5b8151620003f28482602086016200037f565b91505092915050565b5f80604083850312156200041457620004136200027f565b5b5f83015167ffffffffffffffff81111562000434576200043362000283565b5b6200044285828601620003c9565b925050602083015167ffffffffffffffff81111562000466576200046562000283565b5b6200047485828601620003c9565b9150509250929050565b5f81519050919050565b7f4e487b71000000000000000000000000000000000000000000000000000000005f52602260045260245ffd5b5f6002820490506001821680620004cd57607f821691505b602082108103620004e357620004e262000488565b5b50919050565b5f819050815f5260205f209050919050565b5f6020601f8301049050919050565b5f82821b905092915050565b5f60088302620005477fffffffffffffffffffffffffffffffffffffffffffffffffffffffffffffffff826200050a565b6200055386836200050a565b95508019841693508086168417925050509392505050565b5f819050919050565b5f819050919050565b5f6200059d6200059762000591846200056b565b62000574565b6200056b565b9050919050565b5f819050919050565b620005b8836200057d565b620005d0620005c782620005a4565b84845462000516565b825550505050565b5f90565b620005e6620005d8565b620005f3818484620005ad565b505050565b5b818110156200061a576200060e5f82620005dc565b600181019050620005f9565b5050565b601f82111562000669576200063381620004e9565b6200063e84620004fb565b810160208510156200064e578190505b620006666200065d85620004fb565b830182620005f8565b50505b505050565b5f82821c905092915050565b5f6200068b5f19846008026200066e565b1980831691505092915050565b5f620006a583836200067a565b9150826002028217905092915050565b620006c0826200047e565b67ffffffffffffffff811115620006dc57620006db6200029f565b5b620006e88254620004b5565b620006f58282856200061e565b5f60209050601f8311600181146200072b575f841562000716578287015190505b62000722858262000698565b86555062000791565b601f1984166200073b86620004e9565b5f5b8281101562000764578489015182556001820191506020850194506020810190506200073d565b8683101562000784578489015162000780601f8916826200067a565b8355505b6001600288020188555050505b505050505050565b5f819050919050565b620007ad8162000799565b82525050565b620007be816200056b565b82525050565b5f73ffffffffffffffffffffffffffffffffffffffff82169050919050565b5f620007ef82620007c4565b9050919050565b6200080181620007e3565b82525050565b5f60a0820190506200081c5f830188620007a2565b6200082b6020830187620007a2565b6200083a6040830186620007a2565b620008496060830185620007b3565b620008586080830184620007f6565b9695505050505050565b5f82825260208201905092915050565b5f6200087e826200047e565b6200088a818562000862565b93506200089c81856020860162000355565b620008a7816200028f565b840191505092915050565b5f6020820190508181035f830152620008cc818462000872565b905092915050565b5f81519050919050565b5f819050602082019050919050565b5f620008fa825162000799565b80915050919050565b5f6200090f82620008d4565b826200091b84620008de565b90506200092881620008ed565b925060208210156200096b57620009667fffffffffffffffffffffffffffffffffffffffffffffffffffffffffffffffff836020036008026200050a565b831692505b5050919050565b60805160a05160c05160e0516101005161012051610140516134da620009c45f395f61111401525f6110d901525f61214501525f61212401525f61199801525f6119ee01525f611a1701526134da5ff3fe608060405234801561000f575f80fd5b5060043610610140575f3560e01c806370a08231116100b657806395d89b411161007a57806395d89b41146103b65780639ab24eb0146103d4578063a9059cbb14610404578063c3cda52014610434578063dd62ed3e14610450578063f1127ed81461048057610140565b806370a08231146102e45780637ecebe001461031457806384b0196e146103445780638e539e8c1461036857806391ddadf41461039857610140565b80633a46b1a8116101085780633a46b1a8146101fe57806340c10f191461022e5780634bf5d7e91461024a578063587cde1e146102685780635c19a95c146102985780636fcfff45146102b457610140565b806306fdde0314610144578063095ea7b31461016257806318160ddd1461019257806323b872dd146101b0578063313ce567146101e0575b5f80fd5b61014c6104b0565b6040516101599190612920565b60405180910390f35b61017c600480360381019061017791906129d1565b610540565b6040516101899190612a29565b60405180910390f35b61019a610562565b6040516101a79190612a51565b60405180910390f35b6101ca60048036038101906101c59190612a6a565b61056b565b6040516101d79190612a29565b60405180910390f35b6101e8610599565b6040516101f59190612ad5565b60405180910390f35b610218600480360381019061021391906129d1565b6105a1565b6040516102259190612a51565b60405180910390f35b610248600480360381019061024391906129d1565b610677565b005b610252610685565b60405161025f9190612920565b60405180910390f35b610282600480360381019061027d9190612aee565b610719565b60405161028f9190612b28565b60405180910390f35b6102b260048036038101906102ad9190612aee565b61077e565b005b6102ce60048036038101906102c99190612aee565b610797565b6040516102db9190612b5f565b60405180910390f35b6102fe60048036038101906102f99190612aee565b6107a8565b60405161030b9190612a51565b60405180910390f35b61032e60048036038101906103299190612aee565b6107ed565b60405161033b9190612a51565b60405180910390f35b61034c610833565b60405161035f9796959493929190612c81565b60405180910390f35b610382600480360381019061037d9190612d03565b6108d8565b60405161038f9190612a51565b60405180910390f35b6103a0610972565b6040516103ad9190612d4e565b60405180910390f35b6103be610980565b6040516103cb9190612920565b60405180910390f35b6103ee60048036038101906103e99190612aee565b610a10565b6040516103fb9190612a51565b60405180910390f35b61041e600480360381019061041991906129d1565b610a79565b60405161042b9190612a29565b60405180910390f35b61044e60048036038101906104499190612dbb565b610a9b565b005b61046a60048036038101906104659190612e44565b610b60565b6040516104779190612a51565b60405180910390f35b61049a60048036038101906104959190612eac565b610be2565b6040516104a79190612f5a565b60405180910390f35b6060600380546104bf90612fa0565b80601f01602080910402602001604051908101604052809291908181526020018280546104eb90612fa0565b80156105365780601f1061050d57610100808354040283529160200191610536565b820191905f5260205f20905b81548152906001019060200180831161051957829003601f168201915b5050505050905090565b5f8061054a610bfc565b9050610557818585610c03565b600191505092915050565b5f600254905090565b5f80610575610bfc565b9050610582858285610c15565b61058d858585610ca7565b60019150509392505050565b5f6012905090565b5f806105ab610972565b90508065ffffffffffff1683106105fb5782816040517fecd3f81e0000000000000000000000000000000000000000000000000000000081526004016105f2929190612fd0565b60405180910390fd5b61065261060784610d97565b60095f8773ffffffffffffffffffffffffffffffffffffffff1673ffffffffffffffffffffffffffffffffffffffff1681526020019081526020015f20610df090919063ffffffff16565b79ffffffffffffffffffffffffffffffffffffffffffffffffffff1691505092915050565b6106818282610edd565b5050565b606061068f610f5c565b65ffffffffffff1661069f610972565b65ffffffffffff16146106de576040517f6ff0714000000000000000000000000000000000000000000000000000000000815260040160405180910390fd5b6040518060400160405280601d81526020017f6d6f64653d626c6f636b6e756d6265722666726f6d3d64656661756c74000000815250905090565b5f60085f8373ffffffffffffffffffffffffffffffffffffffff1673ffffffffffffffffffffffffffffffffffffffff1681526020019081526020015f205f9054906101000a900473ffffffffffffffffffffffffffffffffffffffff169050919050565b5f610787610bfc565b90506107938183610f6b565b5050565b5f6107a18261107b565b9050919050565b5f805f8373ffffffffffffffffffffffffffffffffffffffff1673ffffffffffffffffffffffffffffffffffffffff1681526020019081526020015f20549050919050565b5f60075f8373ffffffffffffffffffffffffffffffffffffffff1673ffffffffffffffffffffffffffffffffffffffff1681526020019081526020015f20549050919050565b5f6060805f805f60606108446110d0565b61084c61110b565b46305f801b5f67ffffffffffffffff81111561086b5761086a612ff7565b5b6040519080825280602002602001820160405280156108995781602001602082028036833780820191505090505b507f0f00000000000000000000000000000000000000000000000000000000000000959493929190965096509650965096509650965090919293949596565b5f806108e2610972565b90508065ffffffffffff1683106109325782816040517fecd3f81e000000000000000000000000000000000000000000000000000000008152600401610929929190612fd0565b60405180910390fd5b61094e61093e84610d97565b600a610df090919063ffffffff16565b79ffffffffffffffffffffffffffffffffffffffffffffffffffff16915050919050565b5f61097b610f5c565b905090565b60606004805461098f90612fa0565b80601f01602080910402602001604051908101604052809291908181526020018280546109bb90612fa0565b8015610a065780601f106109dd57610100808354040283529160200191610a06565b820191905f5260205f20905b8154815290600101906020018083116109e957829003601f168201915b5050505050905090565b5f610a5660095f8473ffffffffffffffffffffffffffffffffffffffff1673ffffffffffffffffffffffffffffffffffffffff1681526020019081526020015f20611146565b79ffffffffffffffffffffffffffffffffffffffffffffffffffff169050919050565b5f80610a83610bfc565b9050610a90818585610ca7565b600191505092915050565b83421115610ae057836040517f4683af0e000000000000000000000000000000000000000000000000000000008152600401610ad79190612a51565b60405180910390fd5b5f610b41610b397fe48329057bfd03d55e49b547132e39cffd9c1820ad7b9d4c5307691425d15adf898989604051602001610b1e9493929190613024565b604051602081830303815290604052805190602001206111a8565b8585856111c1565b9050610b4d81876111ef565b610b578188610f6b565b50505050505050565b5f60015f8473ffffffffffffffffffffffffffffffffffffffff1673ffffffffffffffffffffffffffffffffffffffff1681526020019081526020015f205f8373ffffffffffffffffffffffffffffffffffffffff1673ffffffffffffffffffffffffffffffffffffffff1681526020019081526020015f2054905092915050565b610bea61285a565b610bf48383611246565b905092915050565b5f33905090565b610c1083838360016112a5565b505050565b5f610c208484610b60565b90507fffffffffffffffffffffffffffffffffffffffffffffffffffffffffffffffff8114610ca15781811015610c92578281836040517ffb8f41b2000000000000000000000000000000000000000000000000000000008152600401610c8993929190613067565b60405180910390fd5b610ca084848484035f6112a5565b5b50505050565b5f73ffffffffffffffffffffffffffffffffffffffff168373ffffffffffffffffffffffffffffffffffffffff1603610d17575f6040517f96c6fd1e000000000000000000000000000000000000000000000000000000008152600401610d0e9190612b28565b60405180910390fd5b5f73ffffffffffffffffffffffffffffffffffffffff168273ffffffffffffffffffffffffffffffffffffffff1603610d87575f6040517fec442f05000000000000000000000000000000000000000000000000000000008152600401610d7e9190612b28565b60405180910390fd5b610d92838383611474565b505050565b5f65ffffffffffff8016821115610de8576030826040517f6dfcc650000000000000000000000000000000000000000000000000000000008152600401610ddf9291906130de565b60405180910390fd5b819050919050565b5f80835f018054905090505f808290506005831115610e71575f610e1384611484565b84610e1e9190613132565b9050610e2c875f018261157a565b5f015f9054906101000a900465ffffffffffff1665ffffffffffff168665ffffffffffff161015610e5f57809150610e6f565b600181610e6c9190613165565b92505b505b5f610e80875f0187858561158c565b90505f8114610ecf57610ea1875f01600183610e9c9190613132565b61157a565b5f0160069054906101000a900479ffffffffffffffffffffffffffffffffffffffffffffffffffff16610ed1565b5f5b94505050505092915050565b5f73ffffffffffffffffffffffffffffffffffffffff168273ffffffffffffffffffffffffffffffffffffffff1603610f4d575f6040517fec442f05000000000000000000000000000000000000000000000000000000008152600401610f449190612b28565b60405180910390fd5b610f585f8383611474565b5050565b5f610f6643610d97565b905090565b5f610f7583610719565b90508160085f8573ffffffffffffffffffffffffffffffffffffffff1673ffffffffffffffffffffffffffffffffffffffff1681526020019081526020015f205f6101000a81548173ffffffffffffffffffffffffffffffffffffffff021916908373ffffffffffffffffffffffffffffffffffffffff1602179055508173ffffffffffffffffffffffffffffffffffffffff168173ffffffffffffffffffffffffffffffffffffffff168473ffffffffffffffffffffffffffffffffffffffff167f3134e8a2e6d97e929a7e54011ea5485d7d196dd5f0ba4d4ef95803e8e3fc257f60405160405180910390a4611076818361107186611601565b611612565b505050565b5f6110c96110c460095f8573ffffffffffffffffffffffffffffffffffffffff1673ffffffffffffffffffffffffffffffffffffffff1681526020019081526020015f20611882565b611891565b9050919050565b606061110660057f00000000000000000000000000000000000000000000000000000000000000006118e890919063ffffffff16565b905090565b606061114160067f00000000000000000000000000000000000000000000000000000000000000006118e890919063ffffffff16565b905090565b5f80825f018054905090505f811461119e57611170835f0160018361116b9190613132565b61157a565b5f0160069054906101000a900479ffffffffffffffffffffffffffffffffffffffffffffffffffff166111a0565b5f5b915050919050565b5f6111ba6111b4611995565b83611a4b565b9050919050565b5f805f806111d188888888611a8b565b9250925092506111e18282611b72565b829350505050949350505050565b5f6111f983611cd4565b90508082146112415782816040517f752d88c0000000000000000000000000000000000000000000000000000000008152600401611238929190613198565b60405180910390fd5b505050565b61124e61285a565b61129d8260095f8673ffffffffffffffffffffffffffffffffffffffff1673ffffffffffffffffffffffffffffffffffffffff1681526020019081526020015f20611d2790919063ffffffff16565b905092915050565b5f73ffffffffffffffffffffffffffffffffffffffff168473ffffffffffffffffffffffffffffffffffffffff1603611315575f6040517fe602df0500000000000000000000000000000000000000000000000000000000815260040161130c9190612b28565b60405180910390fd5b5f73ffffffffffffffffffffffffffffffffffffffff168373ffffffffffffffffffffffffffffffffffffffff1603611385575f6040517f94280d6200000000000000000000000000000000000000000000000000000000815260040161137c9190612b28565b60405180910390fd5b8160015f8673ffffffffffffffffffffffffffffffffffffffff1673ffffffffffffffffffffffffffffffffffffffff1681526020019081526020015f205f8573ffffffffffffffffffffffffffffffffffffffff1673ffffffffffffffffffffffffffffffffffffffff1681526020019081526020015f2081905550801561146e578273ffffffffffffffffffffffffffffffffffffffff168473ffffffffffffffffffffffffffffffffffffffff167f8c5be1e5ebec7d5bd14f71427d1e84f3dd0314c0f7b2291e5b200ac8c7c3b925846040516114659190612a51565b60405180910390a35b50505050565b61147f838383611df6565b505050565b5f808203611494575f9050611575565b5f60016114a084611ea4565b901c6001901b905060018184816114ba576114b96131bf565b5b048201901c905060018184816114d3576114d26131bf565b5b048201901c905060018184816114ec576114eb6131bf565b5b048201901c90506001818481611505576115046131bf565b5b048201901c9050600181848161151e5761151d6131bf565b5b048201901c90506001818481611537576115366131bf565b5b048201901c905060018184816115505761154f6131bf565b5b048201901c90506115718182858161156b5761156a6131bf565b5b04611f7b565b9150505b919050565b5f825f528160205f2001905092915050565b5f5b818310156115f6575f6115a18484611f93565b90508465ffffffffffff166115b6878361157a565b5f015f9054906101000a900465ffffffffffff1665ffffffffffff1611156115e0578092506115f0565b6001816115ed9190613165565b93505b5061158e565b819050949350505050565b5f61160b826107a8565b9050919050565b8173ffffffffffffffffffffffffffffffffffffffff168373ffffffffffffffffffffffffffffffffffffffff161415801561164d57505f81115b1561187d575f73ffffffffffffffffffffffffffffffffffffffff168373ffffffffffffffffffffffffffffffffffffffff1614611767575f806116d860095f8773ffffffffffffffffffffffffffffffffffffffff1673ffffffffffffffffffffffffffffffffffffffff1681526020019081526020015f20611fb86116d386611fcd565b61203a565b79ffffffffffffffffffffffffffffffffffffffffffffffffffff16915079ffffffffffffffffffffffffffffffffffffffffffffffffffff1691508473ffffffffffffffffffffffffffffffffffffffff167fdec2bacdd2f05b59de34da9b523dff8be42e5e38e818c82fdb0bae774387a724838360405161175c9291906131ec565b60405180910390a250505b5f73ffffffffffffffffffffffffffffffffffffffff168273ffffffffffffffffffffffffffffffffffffffff161461187c575f806117ed60095f8673ffffffffffffffffffffffffffffffffffffffff1673ffffffffffffffffffffffffffffffffffffffff1681526020019081526020015f206120796117e886611fcd565b61203a565b79ffffffffffffffffffffffffffffffffffffffffffffffffffff16915079ffffffffffffffffffffffffffffffffffffffffffffffffffff1691508373ffffffffffffffffffffffffffffffffffffffff167fdec2bacdd2f05b59de34da9b523dff8be42e5e38e818c82fdb0bae774387a72483836040516118719291906131ec565b60405180910390a250505b5b505050565b5f815f01805490509050919050565b5f63ffffffff80168211156118e0576020826040517f6dfcc6500000000000000000000000000000000000000000000000000000000081526004016118d792919061324c565b60405180910390fd5b819050919050565b606060ff5f1b8314611904576118fd8361208e565b905061198f565b81805461191090612fa0565b80601f016020809104026020016040519081016040528092919081815260200182805461193c90612fa0565b80156119875780601f1061195e57610100808354040283529160200191611987565b820191905f5260205f20905b81548152906001019060200180831161196a57829003601f168201915b505050505090505b92915050565b5f7f000000000000000000000000000000000000000000000000000000000000000073ffffffffffffffffffffffffffffffffffffffff163073ffffffffffffffffffffffffffffffffffffffff16148015611a1057507f000000000000000000000000000000000000000000000000000000000000000046145b15611a3d577f00000000000000000000000000000000000000000000000000000000000000009050611a48565b611a45612100565b90505b90565b5f6040517f190100000000000000000000000000000000000000000000000000000000000081528360028201528260228201526042812091505092915050565b5f805f7f7fffffffffffffffffffffffffffffff5d576e7357a4501ddfe92f46681b20a0845f1c1115611ac7575f600385925092509250611b68565b5f6001888888886040515f8152602001604052604051611aea9493929190613273565b6020604051602081039080840390855afa158015611b0a573d5f803e3d5ffd5b5050506020604051035190505f73ffffffffffffffffffffffffffffffffffffffff168173ffffffffffffffffffffffffffffffffffffffff1603611b5b575f60015f801b93509350935050611b68565b805f805f1b935093509350505b9450945094915050565b5f6003811115611b8557611b846132b6565b5b826003811115611b9857611b976132b6565b5b0315611cd05760016003811115611bb257611bb16132b6565b5b826003811115611bc557611bc46132b6565b5b03611bfc576040517ff645eedf00000000000000000000000000000000000000000000000000000000815260040160405180910390fd5b60026003811115611c1057611c0f6132b6565b5b826003811115611c2357611c226132b6565b5b03611c6757805f1c6040517ffce698f7000000000000000000000000000000000000000000000000000000008152600401611c5e9190612a51565b60405180910390fd5b600380811115611c7a57611c796132b6565b5b826003811115611c8d57611c8c6132b6565b5b03611ccf57806040517fd78bce0c000000000000000000000000000000000000000000000000000000008152600401611cc691906132e3565b60405180910390fd5b5b5050565b5f60075f8373ffffffffffffffffffffffffffffffffffffffff1673ffffffffffffffffffffffffffffffffffffffff1681526020019081526020015f205f815480929190600101919050559050919050565b611d2f61285a565b825f018263ffffffff1681548110611d4a57611d496132fc565b5b905f5260205f20016040518060400160405290815f82015f9054906101000a900465ffffffffffff1665ffffffffffff1665ffffffffffff1681526020015f820160069054906101000a900479ffffffffffffffffffffffffffffffffffffffffffffffffffff1679ffffffffffffffffffffffffffffffffffffffffffffffffffff1679ffffffffffffffffffffffffffffffffffffffffffffffffffff1681525050905092915050565b611e01838383612195565b5f73ffffffffffffffffffffffffffffffffffffffff168373ffffffffffffffffffffffffffffffffffffffff1603611e94575f611e3d610562565b90505f611e486123ae565b905080821115611e915781816040517f1cb15d26000000000000000000000000000000000000000000000000000000008152600401611e889291906131ec565b60405180910390fd5b50505b611e9f8383836123d1565b505050565b5f805f90505f608084901c1115611ec357608083901c92506080810190505b5f604084901c1115611edd57604083901c92506040810190505b5f602084901c1115611ef757602083901c92506020810190505b5f601084901c1115611f1157601083901c92506010810190505b5f600884901c1115611f2b57600883901c92506008810190505b5f600484901c1115611f4557600483901c92506004810190505b5f600284901c1115611f5f57600283901c92506002810190505b5f600184901c1115611f72576001810190505b80915050919050565b5f818310611f895781611f8b565b825b905092915050565b5f6002828418611fa39190613329565b828416611fb09190613165565b905092915050565b5f8183611fc59190613359565b905092915050565b5f79ffffffffffffffffffffffffffffffffffffffffffffffffffff80168211156120325760d0826040517f6dfcc6500000000000000000000000000000000000000000000000000000000081526004016120299291906133df565b60405180910390fd5b819050919050565b5f8061206d612047610972565b61205d61205388611146565b868863ffffffff16565b876124899092919063ffffffff16565b91509150935093915050565b5f81836120869190613406565b905092915050565b60605f61209a836124a4565b90505f602067ffffffffffffffff8111156120b8576120b7612ff7565b5b6040519080825280601f01601f1916602001820160405280156120ea5781602001600182028036833780820191505090505b5090508181528360208201528092505050919050565b5f7f8b73c3c69bb8fe3d512ecc4cf759cc79239f7b179b0ffacaa9a75d522b39400f7f00000000000000000000000000000000000000000000000000000000000000007f0000000000000000000000000000000000000000000000000000000000000000463060405160200161217a959493929190613453565b60405160208183030381529060405280519060200120905090565b5f73ffffffffffffffffffffffffffffffffffffffff168373ffffffffffffffffffffffffffffffffffffffff16036121e5578060025f8282546121d99190613165565b925050819055506122b3565b5f805f8573ffffffffffffffffffffffffffffffffffffffff1673ffffffffffffffffffffffffffffffffffffffff1681526020019081526020015f205490508181101561226e578381836040517fe450d38c00000000000000000000000000000000000000000000000000000000815260040161226593929190613067565b60405180910390fd5b8181035f808673ffffffffffffffffffffffffffffffffffffffff1673ffffffffffffffffffffffffffffffffffffffff1681526020019081526020015f2081905550505b5f73ffffffffffffffffffffffffffffffffffffffff168273ffffffffffffffffffffffffffffffffffffffff16036122fa578060025f8282540392505081905550612344565b805f808473ffffffffffffffffffffffffffffffffffffffff1673ffffffffffffffffffffffffffffffffffffffff1681526020019081526020015f205f82825401925050819055505b8173ffffffffffffffffffffffffffffffffffffffff168373ffffffffffffffffffffffffffffffffffffffff167fddf252ad1be2c89b69c2b068fc378daa952ba7f163c4a11628f55a4df523b3ef836040516123a19190612a51565b60405180910390a3505050565b5f79ffffffffffffffffffffffffffffffffffffffffffffffffffff8016905090565b5f73ffffffffffffffffffffffffffffffffffffffff168373ffffffffffffffffffffffffffffffffffffffff160361241d5761241a600a61207961241584611fcd565b61203a565b50505b5f73ffffffffffffffffffffffffffffffffffffffff168273ffffffffffffffffffffffffffffffffffffffff160361246957612466600a611fb861246184611fcd565b61203a565b50505b61248461247584610719565b61247e84610719565b83611612565b505050565b5f80612498855f0185856124f2565b91509150935093915050565b5f8060ff835f1c169050601f8111156124e9576040517fb3512b0c00000000000000000000000000000000000000000000000000000000815260040160405180910390fd5b80915050919050565b5f805f858054905090505f811115612772575f61251b876001846125169190613132565b61157a565b6040518060400160405290815f82015f9054906101000a900465ffffffffffff1665ffffffffffff1665ffffffffffff1681526020015f820160069054906101000a900479ffffffffffffffffffffffffffffffffffffffffffffffffffff1679ffffffffffffffffffffffffffffffffffffffffffffffffffff1679ffffffffffffffffffffffffffffffffffffffffffffffffffff168152505090508565ffffffffffff16815f015165ffffffffffff161115612606576040517f2520601d00000000000000000000000000000000000000000000000000000000815260040160405180910390fd5b8565ffffffffffff16815f015165ffffffffffff16036126885784612637886001856126329190613132565b61157a565b5f0160066101000a81548179ffffffffffffffffffffffffffffffffffffffffffffffffffff021916908379ffffffffffffffffffffffffffffffffffffffffffffffffffff160217905550612761565b8660405180604001604052808865ffffffffffff1681526020018779ffffffffffffffffffffffffffffffffffffffffffffffffffff16815250908060018154018082558091505060019003905f5260205f20015f909190919091505f820151815f015f6101000a81548165ffffffffffff021916908365ffffffffffff1602179055506020820151815f0160066101000a81548179ffffffffffffffffffffffffffffffffffffffffffffffffffff021916908379ffffffffffffffffffffffffffffffffffffffffffffffffffff16021790555050505b806020015185935093505050612852565b8560405180604001604052808765ffffffffffff1681526020018679ffffffffffffffffffffffffffffffffffffffffffffffffffff16815250908060018154018082558091505060019003905f5260205f20015f909190919091505f820151815f015f6101000a81548165ffffffffffff021916908365ffffffffffff1602179055506020820151815f0160066101000a81548179ffffffffffffffffffffffffffffffffffffffffffffffffffff021916908379ffffffffffffffffffffffffffffffffffffffffffffffffffff16021790555050505f8492509250505b935093915050565b60405180604001604052805f65ffffffffffff1681526020015f79ffffffffffffffffffffffffffffffffffffffffffffffffffff1681525090565b5f81519050919050565b5f82825260208201905092915050565b5f5b838110156128cd5780820151818401526020810190506128b2565b5f8484015250505050565b5f601f19601f8301169050919050565b5f6128f282612896565b6128fc81856128a0565b935061290c8185602086016128b0565b612915816128d8565b840191505092915050565b5f6020820190508181035f83015261293881846128e8565b905092915050565b5f80fd5b5f73ffffffffffffffffffffffffffffffffffffffff82169050919050565b5f61296d82612944565b9050919050565b61297d81612963565b8114612987575f80fd5b50565b5f8135905061299881612974565b92915050565b5f819050919050565b6129b08161299e565b81146129ba575f80fd5b50565b5f813590506129cb816129a7565b92915050565b5f80604083850312156129e7576129e6612940565b5b5f6129f48582860161298a565b9250506020612a05858286016129bd565b9150509250929050565b5f8115159050919050565b612a2381612a0f565b82525050565b5f602082019050612a3c5f830184612a1a565b92915050565b612a4b8161299e565b82525050565b5f602082019050612a645f830184612a42565b92915050565b5f805f60608486031215612a8157612a80612940565b5b5f612a8e8682870161298a565b9350506020612a9f8682870161298a565b9250506040612ab0868287016129bd565b9150509250925092565b5f60ff82169050919050565b612acf81612aba565b82525050565b5f602082019050612ae85f830184612ac6565b92915050565b5f60208284031215612b0357612b02612940565b5b5f612b108482850161298a565b91505092915050565b612b2281612963565b82525050565b5f602082019050612b3b5f830184612b19565b92915050565b5f63ffffffff82169050919050565b612b5981612b41565b82525050565b5f602082019050612b725f830184612b50565b92915050565b5f7fff0000000000000000000000000000000000000000000000000000000000000082169050919050565b612bac81612b78565b82525050565b5f819050919050565b612bc481612bb2565b82525050565b5f81519050919050565b5f82825260208201905092915050565b5f819050602082019050919050565b612bfc8161299e565b82525050565b5f612c0d8383612bf3565b60208301905092915050565b5f602082019050919050565b5f612c2f82612bca565b612c398185612bd4565b9350612c4483612be4565b805f5b83811015612c74578151612c5b8882612c02565b9750612c6683612c19565b925050600181019050612c47565b5085935050505092915050565b5f60e082019050612c945f83018a612ba3565b8181036020830152612ca681896128e8565b90508181036040830152612cba81886128e8565b9050612cc96060830187612a42565b612cd66080830186612b19565b612ce360a0830185612bbb565b81810360c0830152612cf58184612c25565b905098975050505050505050565b5f60208284031215612d1857612d17612940565b5b5f612d25848285016129bd565b91505092915050565b5f65ffffffffffff82169050919050565b612d4881612d2e565b82525050565b5f602082019050612d615f830184612d3f565b92915050565b612d7081612aba565b8114612d7a575f80fd5b50565b5f81359050612d8b81612d67565b92915050565b612d9a81612bb2565b8114612da4575f80fd5b50565b5f81359050612db581612d91565b92915050565b5f805f805f8060c08789031215612dd557612dd4612940565b5b5f612de289828a0161298a565b9650506020612df389828a016129bd565b9550506040612e0489828a016129bd565b9450506060612e1589828a01612d7d565b9350506080612e2689828a01612da7565b92505060a0612e3789828a01612da7565b9150509295509295509295565b5f8060408385031215612e5a57612e59612940565b5b5f612e678582860161298a565b9250506020612e788582860161298a565b9150509250929050565b612e8b81612b41565b8114612e95575f80fd5b50565b5f81359050612ea681612e82565b92915050565b5f8060408385031215612ec257612ec1612940565b5b5f612ecf8582860161298a565b9250506020612ee085828601612e98565b9150509250929050565b612ef381612d2e565b82525050565b5f79ffffffffffffffffffffffffffffffffffffffffffffffffffff82169050919050565b612f2781612ef9565b82525050565b604082015f820151612f415f850182612eea565b506020820151612f546020850182612f1e565b50505050565b5f604082019050612f6d5f830184612f2d565b92915050565b7f4e487b71000000000000000000000000000000000000000000000000000000005f52602260045260245ffd5b5f6002820490506001821680612fb757607f821691505b602082108103612fca57612fc9612f73565b5b50919050565b5f604082019050612fe35f830185612a42565b612ff06020830184612d3f565b9392505050565b7f4e487b71000000000000000000000000000000000000000000000000000000005f52604160045260245ffd5b5f6080820190506130375f830187612bbb565b6130446020830186612b19565b6130516040830185612a42565b61305e6060830184612a42565b95945050505050565b5f60608201905061307a5f830186612b19565b6130876020830185612a42565b6130946040830184612a42565b949350505050565b5f819050919050565b5f819050919050565b5f6130c86130c36130be8461309c565b6130a5565b612aba565b9050919050565b6130d8816130ae565b82525050565b5f6040820190506130f15f8301856130cf565b6130fe6020830184612a42565b9392505050565b7f4e487b71000000000000000000000000000000000000000000000000000000005f52601160045260245ffd5b5f61313c8261299e565b91506131478361299e565b925082820390508181111561315f5761315e613105565b5b92915050565b5f61316f8261299e565b915061317a8361299e565b925082820190508082111561319257613191613105565b5b92915050565b5f6040820190506131ab5f830185612b19565b6131b86020830184612a42565b9392505050565b7f4e487b71000000000000000000000000000000000000000000000000000000005f52601260045260245ffd5b5f6040820190506131ff5f830185612a42565b61320c6020830184612a42565b9392505050565b5f819050919050565b5f61323661323161322c84613213565b6130a5565b612aba565b9050919050565b6132468161321c565b82525050565b5f60408201905061325f5f83018561323d565b61326c6020830184612a42565b9392505050565b5f6080820190506132865f830187612bbb565b6132936020830186612ac6565b6132a06040830185612bbb565b6132ad6060830184612bbb565b95945050505050565b7f4e487b71000000000000000000000000000000000000000000000000000000005f52602160045260245ffd5b5f6020820190506132f65f830184612bbb565b92915050565b7f4e487b71000000000000000000000000000000000000000000000000000000005f52603260045260245ffd5b5f6133338261299e565b915061333e8361299e565b92508261334e5761334d6131bf565b5b828204905092915050565b5f61336382612ef9565b915061336e83612ef9565b9250828203905079ffffffffffffffffffffffffffffffffffffffffffffffffffff8111156133a05761339f613105565b5b92915050565b5f819050919050565b5f6133c96133c46133bf846133a6565b6130a5565b612aba565b9050919050565b6133d9816133af565b82525050565b5f6040820190506133f25f8301856133d0565b6133ff6020830184612a42565b9392505050565b5f61341082612ef9565b915061341b83612ef9565b9250828201905079ffffffffffffffffffffffffffffffffffffffffffffffffffff81111561344d5761344c613105565b5b92915050565b5f60a0820190506134665f830188612bbb565b6134736020830187612bbb565b6134806040830186612bbb565b61348d6060830185612a42565b61349a6080830184612b19565b969550505050505056fea2646970667358221220af5383ba254653a586dd5c1acb1fdfc76db9e6fd5d6f9a684cdc9f9274508abc64736f6c63430008180033","linkReferences":{}},"methodIdentifiers":{"CLOCK_MODE()":"4bf5d7e9","allowance(address,address)":"dd62ed3e","approve(address,uint256)":"095ea7b3","balanceOf(address)":"70a08231","checkpoints(address,uint32)":"f1127ed8","clock()":"91ddadf4","decimals()":"313ce567","delegate(address)":"5c19a95c","delegateBySig(address,uint256,uint256,uint8,bytes32,bytes32)":"c3cda520","delegates(address)":"587cde1e","eip712Domain()":"84b0196e","getPastTotalSupply(uint256)":"8e539e8c","getPastVotes(address,uint256)":"3a46b1a8","getVotes(address)":"9ab24eb0","mint(address,uint256)":"40c10f19","name()":"06fdde03","nonces(address)":"7ecebe00","numCheckpoints(address)":"6fcfff45","symbol()":"95d89b41","totalSupply()":"18160ddd","transfer(address,uint256)":"a9059cbb","transferFrom(address,address,uint256)":"23b872dd"},"id":65}