{"abi":[{"type":"constructor","inputs":[{"name":"_admin","type":"address","internalType":"address"},{"name":"_NFTMintingFeature","type":"bool","internalType":"bool"}],"stateMutability":"nonpayable"},{"type":"function","name":"ADMIN","inputs":[],"outputs":[{"name":"","type":"bytes32","internalType":"bytes32"}],"stateMutability":"view"},{"type":"function","name":"DEFAULT_ADMIN_ROLE","inputs":[],"outputs":[{"name":"","type":"bytes32","internalType":"bytes32"}],"stateMutability":"view"},{"type":"function","name":"NFTMintingFeature","inputs":[],"outputs":[{"name":"","type":"bool","internalType":"bool"}],"stateMutability":"view"},{"type":"function","name":"PAUSE_AUTHORITY","inputs":[],"outputs":[{"name":"","type":"bytes32","internalType":"bytes32"}],"stateMutability":"view"},{"type":"function","name":"addReferralCode","inputs":[{"name":"referral","type":"tuple","internalType":"struct ISlots.ReferralCode","components":[{"name":"tierId","type":"string","internalType":"string"},{"name":"referrer","type":"address","internalType":"address"},{"name":"maxUse","type":"uint256","internalType":"uint256"},{"name":"maxUsePerWallet","type":"uint256","internalType":"uint256"},{"name":"currentUses","type":"uint256","internalType":"uint256"},{"name":"isActive","type":"bool","internalType":"bool"},{"name":"discount","type":"uint256","internalType":"uint256"},{"name":"commission","type":"uint256","internalType":"uint256"}]},{"name":"tierId","type":"string","internalType":"string"},{"name":"referralCode","type":"string","internalType":"string"}],"outputs":[],"stateMutability":"nonpayable"},{"type":"function","name":"addWhitelistConfig","inputs":[{"name":"tierId","type":"string","internalType":"string"},{"name":"whitelistId","type":"string","internalType":"string"},{"name":"config","type":"tuple","internalType":"struct ISlots.WhitelistConfig","components":[{"name":"root","type":"bytes32","internalType":"bytes32"},{"name":"whitelistStartTime","type":"uint32","internalType":"uint32"},{"name":"whitelistEndTime","type":"uint32","internalType":"uint32"},{"name":"numberOfWhitelistedSlotsOrdered","type":"uint256","internalType":"uint256"},{"name":"capPerAddress","type":"uint256","internalType":"uint256"},{"name":"isActive","type":"bool","internalType":"bool"}]},{"name":"totalNumberOfWhitelistedSlots","type":"uint256","internalType":"uint256"}],"outputs":[],"stateMutability":"nonpayable"},{"type":"function","name":"admin","inputs":[],"outputs":[{"name":"","type":"address","internalType":"address"}],"stateMutability":"view"},{"type":"function","name":"createTier","inputs":[{"name":"tier","type":"tuple","internalType":"struct ISlots.Tier","components":[{"name":"id","type":"string","internalType":"string"},{"name":"price","type":"uint256","internalType":"uint256"},{"name":"numberOfPublicSlots","type":"uint256","internalType":"uint256"},{"name":"numberOfWhitelistedSlots","type":"uint256","internalType":"uint256"},{"name":"numberOfReservedSlots","type":"uint256","internalType":"uint256"},{"name":"numberOfPublicSlotsOrdered","type":"uint256","internalType":"uint256"},{"name":"publicCapPerAddress","type":"uint256","internalType":"uint256"},{"name":"publicStartTime","type":"uint32","internalType":"uint32"},{"name":"publicEndTime","type":"uint32","internalType":"uint32"},{"name":"isActive","type":"bool","internalType":"bool"},{"name":"nftAddress","type":"address","internalType":"address"},{"name":"tokenId","type":"uint256","internalType":"uint256"}]}],"outputs":[],"stateMutability":"nonpayable"},{"type":"function","name":"getOrder","inputs":[{"name":"orderId","type":"string","internalType":"string"}],"outputs":[{"name":"","type":"tuple","internalType":"struct ISlots.Order","components":[{"name":"buyer","type":"address","internalType":"address"},{"name":"tierId","type":"string","internalType":"string"},{"name":"amount","type":"uint256","internalType":"uint256"},{"name":"timestamp","type":"uint256","internalType":"uint256"},{"name":"referralCode","type":"string","internalType":"string"}]}],"stateMutability":"view"},{"type":"function","name":"getReferral","inputs":[{"name":"tierId","type":"string","internalType":"string"},{"name":"referralCode","type":"string","internalType":"string"}],"outputs":[{"name":"","type":"tuple","internalType":"struct ISlots.ReferralCode","components":[{"name":"tierId","type":"string","internalType":"string"},{"name":"referrer","type":"address","internalType":"address"},{"name":"maxUse","type":"uint256","internalType":"uint256"},{"name":"maxUsePerWallet","type":"uint256","internalType":"uint256"},{"name":"currentUses","type":"uint256","internalType":"uint256"},{"name":"isActive","type":"bool","internalType":"bool"},{"name":"discount","type":"uint256","internalType":"uint256"},{"name":"commission","type":"uint256","internalType":"uint256"}]}],"stateMutability":"view"},{"type":"function","name":"getReferralUses","inputs":[{"name":"tierId","type":"string","internalType":"string"},{"name":"referralCode","type":"string","internalType":"string"}],"outputs":[{"name":"uses","type":"uint256","internalType":"uint256"}],"stateMutability":"view"},{"type":"function","name":"getRoleAdmin","inputs":[{"name":"role","type":"bytes32","internalType":"bytes32"}],"outputs":[{"name":"","type":"bytes32","internalType":"bytes32"}],"stateMutability":"view"},{"type":"function","name":"getTier","inputs":[{"name":"tierId","type":"string","internalType":"string"}],"outputs":[{"name":"","type":"tuple","internalType":"struct ISlots.Tier","components":[{"name":"id","type":"string","internalType":"string"},{"name":"price","type":"uint256","internalType":"uint256"},{"name":"numberOfPublicSlots","type":"uint256","internalType":"uint256"},{"name":"numberOfWhitelistedSlots","type":"uint256","internalType":"uint256"},{"name":"numberOfReservedSlots","type":"uint256","internalType":"uint256"},{"name":"numberOfPublicSlotsOrdered","type":"uint256","internalType":"uint256"},{"name":"publicCapPerAddress","type":"uint256","internalType":"uint256"},{"name":"publicStartTime","type":"uint32","internalType":"uint32"},{"name":"publicEndTime","type":"uint32","internalType":"uint32"},{"name":"isActive","type":"bool","internalType":"bool"},{"name":"nftAddress","type":"address","internalType":"address"},{"name":"tokenId","type":"uint256","internalType":"uint256"}]}],"stateMutability":"view"},{"type":"function","name":"getUserSlotCount","inputs":[{"name":"user","type":"address","internalType":"address"},{"name":"tierId","type":"string","internalType":"string"}],"outputs":[{"name":"","type":"uint256","internalType":"uint256"}],"stateMutability":"view"},{"type":"function","name":"grantRole","inputs":[{"name":"role","type":"bytes32","internalType":"bytes32"},{"name":"account","type":"address","internalType":"address"}],"outputs":[],"stateMutability":"nonpayable"},{"type":"function","name":"hasRole","inputs":[{"name":"role","type":"bytes32","internalType":"bytes32"},{"name":"account","type":"address","internalType":"address"}],"outputs":[{"name":"","type":"bool","internalType":"bool"}],"stateMutability":"view"},{"type":"function","name":"multicall","inputs":[{"name":"data","type":"bytes[]","internalType":"bytes[]"}],"outputs":[{"name":"results","type":"bytes[]","internalType":"bytes[]"}],"stateMutability":"nonpayable"},{"type":"function","name":"order","inputs":[{"name":"tierId","type":"string","internalType":"string"},{"name":"orderId","type":"string","internalType":"string"}],"outputs":[],"stateMutability":"payable"},{"type":"function","name":"orderReferral","inputs":[{"name":"tierId","type":"string","internalType":"string"},{"name":"orderId","type":"string","internalType":"string"},{"name":"referralCode","type":"string","internalType":"string"}],"outputs":[],"stateMutability":"payable"},{"type":"function","name":"orderWhitelist","inputs":[{"name":"tierId","type":"string","internalType":"string"},{"name":"orderId","type":"string","internalType":"string"},{"name":"whitelistId","type":"string","internalType":"string"},{"name":"proof","type":"bytes32[]","internalType":"bytes32[]"}],"outputs":[],"stateMutability":"payable"},{"type":"function","name":"orderWhitelistReferral","inputs":[{"name":"tierId","type":"string","internalType":"string"},{"name":"orderId","type":"string","internalType":"string"},{"name":"whitelistId","type":"string","internalType":"string"},{"name":"proof","type":"bytes32[]","internalType":"bytes32[]"},{"name":"referralCode","type":"string","internalType":"string"}],"outputs":[],"stateMutability":"payable"},{"type":"function","name":"orders","inputs":[{"name":"","type":"string","internalType":"string"}],"outputs":[{"name":"buyer","type":"address","internalType":"address"},{"name":"tierId","type":"string","internalType":"string"},{"name":"amount","type":"uint256","internalType":"uint256"},{"name":"timestamp","type":"uint256","internalType":"uint256"},{"name":"referralCode","type":"string","internalType":"string"}],"stateMutability":"view"},{"type":"function","name":"overwriteTier","inputs":[{"name":"newTier","type":"tuple","internalType":"struct ISlots.Tier","components":[{"name":"id","type":"string","internalType":"string"},{"name":"price","type":"uint256","internalType":"uint256"},{"name":"numberOfPublicSlots","type":"uint256","internalType":"uint256"},{"name":"numberOfWhitelistedSlots","type":"uint256","internalType":"uint256"},{"name":"numberOfReservedSlots","type":"uint256","internalType":"uint256"},{"name":"numberOfPublicSlotsOrdered","type":"uint256","internalType":"uint256"},{"name":"publicCapPerAddress","type":"uint256","internalType":"uint256"},{"name":"publicStartTime","type":"uint32","internalType":"uint32"},{"name":"publicEndTime","type":"uint32","internalType":"uint32"},{"name":"isActive","type":"bool","internalType":"bool"},{"name":"nftAddress","type":"address","internalType":"address"},{"name":"tokenId","type":"uint256","internalType":"uint256"}]},{"name":"tierId","type":"string","internalType":"string"}],"outputs":[],"stateMutability":"nonpayable"},{"type":"function","name":"pause","inputs":[],"outputs":[],"stateMutability":"nonpayable"},{"type":"function","name":"paused","inputs":[],"outputs":[{"name":"","type":"bool","internalType":"bool"}],"stateMutability":"view"},{"type":"function","name":"renounceRole","inputs":[{"name":"role","type":"bytes32","internalType":"bytes32"},{"name":"callerConfirmation","type":"address","internalType":"address"}],"outputs":[],"stateMutability":"nonpayable"},{"type":"function","name":"rescueFunds","inputs":[{"name":"errantTokenAddress","type":"address","internalType":"address"},{"name":"rescueAddress","type":"address","internalType":"address"}],"outputs":[],"stateMutability":"nonpayable"},{"type":"function","name":"revokeRole","inputs":[{"name":"role","type":"bytes32","internalType":"bytes32"},{"name":"account","type":"address","internalType":"address"}],"outputs":[],"stateMutability":"nonpayable"},{"type":"function","name":"setNFTAddress","inputs":[{"name":"tierId","type":"string","internalType":"string"},{"name":"_NFTAddress","type":"address","internalType":"address"}],"outputs":[],"stateMutability":"nonpayable"},{"type":"function","name":"setReferralCodeActive","inputs":[{"name":"tierId","type":"string","internalType":"string"},{"name":"referralCode","type":"string","internalType":"string"},{"name":"isActive","type":"bool","internalType":"bool"}],"outputs":[],"stateMutability":"nonpayable"},{"type":"function","name":"setWhitelistActive","inputs":[{"name":"tierId","type":"string","internalType":"string"},{"name":"whitelistId","type":"string","internalType":"string"},{"name":"isActive","type":"bool","internalType":"bool"}],"outputs":[],"stateMutability":"nonpayable"},{"type":"function","name":"startSale","inputs":[{"name":"tierId","type":"string","internalType":"string"}],"outputs":[],"stateMutability":"nonpayable"},{"type":"function","name":"supportsInterface","inputs":[{"name":"interfaceId","type":"bytes4","internalType":"bytes4"}],"outputs":[{"name":"","type":"bool","internalType":"bool"}],"stateMutability":"view"},{"type":"function","name":"tiers","inputs":[{"name":"","type":"string","internalType":"string"}],"outputs":[{"name":"id","type":"string","internalType":"string"},{"name":"price","type":"uint256","internalType":"uint256"},{"name":"numberOfPublicSlots","type":"uint256","internalType":"uint256"},{"name":"numberOfWhitelistedSlots","type":"uint256","internalType":"uint256"},{"name":"numberOfReservedSlots","type":"uint256","internalType":"uint256"},{"name":"numberOfPublicSlotsOrdered","type":"uint256","internalType":"uint256"},{"name":"publicCapPerAddress","type":"uint256","internalType":"uint256"},{"name":"publicStartTime","type":"uint32","internalType":"uint32"},{"name":"publicEndTime","type":"uint32","internalType":"uint32"},{"name":"isActive","type":"bool","internalType":"bool"},{"name":"nftAddress","type":"address","internalType":"address"},{"name":"tokenId","type":"uint256","internalType":"uint256"}],"stateMutability":"view"},{"type":"function","name":"unpause","inputs":[],"outputs":[],"stateMutability":"nonpayable"},{"type":"function","name":"userOrders","inputs":[{"name":"","type":"string","internalType":"string"},{"name":"","type":"address","internalType":"address"}],"outputs":[{"name":"numberOfSlotsOrdered","type":"uint32","internalType":"uint32"},{"name":"whitelistUses","type":"uint32","internalType":"uint32"}],"stateMutability":"view"},{"type":"function","name":"whitelists","inputs":[{"name":"","type":"string","internalType":"string"},{"name":"","type":"string","internalType":"string"}],"outputs":[{"name":"root","type":"bytes32","internalType":"bytes32"},{"name":"whitelistStartTime","type":"uint32","internalType":"uint32"},{"name":"whitelistEndTime","type":"uint32","internalType":"uint32"},{"name":"numberOfWhitelistedSlotsOrdered","type":"uint256","internalType":"uint256"},{"name":"capPerAddress","type":"uint256","internalType":"uint256"},{"name":"isActive","type":"bool","internalType":"bool"}],"stateMutability":"view"},{"type":"function","name":"withdrawAdmin","inputs":[{"name":"amount","type":"uint256","internalType":"uint256"}],"outputs":[],"stateMutability":"nonpayable"},{"type":"event","name":"AdminWithdrawn","inputs":[{"name":"amount","type":"uint256","indexed":false,"internalType":"uint256"}],"anonymous":false},{"type":"event","name":"FundsWithdrawn","inputs":[{"name":"to","type":"address","indexed":true,"internalType":"address"},{"name":"amount","type":"uint256","indexed":false,"internalType":"uint256"}],"anonymous":false},{"type":"event","name":"Paused","inputs":[{"name":"account","type":"address","indexed":false,"internalType":"address"}],"anonymous":false},{"type":"event","name":"ReferralCodeCreated","inputs":[{"name":"referralCode","type":"string","indexed":false,"internalType":"string"},{"name":"referrer","type":"address","indexed":false,"internalType":"address"}],"anonymous":false},{"type":"event","name":"ReferralCodeDeactivated","inputs":[{"name":"referralCode","type":"string","indexed":false,"internalType":"string"}],"anonymous":false},{"type":"event","name":"ReferralCodeUsed","inputs":[{"name":"referralCode","type":"string","indexed":false,"internalType":"string"},{"name":"user","type":"address","indexed":false,"internalType":"address"}],"anonymous":false},{"type":"event","name":"RoleAdminChanged","inputs":[{"name":"role","type":"bytes32","indexed":true,"internalType":"bytes32"},{"name":"previousAdminRole","type":"bytes32","indexed":true,"internalType":"bytes32"},{"name":"newAdminRole","type":"bytes32","indexed":true,"internalType":"bytes32"}],"anonymous":false},{"type":"event","name":"RoleGranted","inputs":[{"name":"role","type":"bytes32","indexed":true,"internalType":"bytes32"},{"name":"account","type":"address","indexed":true,"internalType":"address"},{"name":"sender","type":"address","indexed":true,"internalType":"address"}],"anonymous":false},{"type":"event","name":"RoleRevoked","inputs":[{"name":"role","type":"bytes32","indexed":true,"internalType":"bytes32"},{"name":"account","type":"address","indexed":true,"internalType":"address"},{"name":"sender","type":"address","indexed":true,"internalType":"address"}],"anonymous":false},{"type":"event","name":"SlotOrdered","inputs":[{"name":"buyer","type":"address","indexed":true,"internalType":"address"},{"name":"id","type":"string","indexed":true,"internalType":"string"},{"name":"amount","type":"uint256","indexed":false,"internalType":"uint256"},{"name":"referralCode","type":"string","indexed":false,"internalType":"string"},{"name":"nftId","type":"uint256","indexed":false,"internalType":"uint256"}],"anonymous":false},{"type":"event","name":"TierCreated","inputs":[{"name":"id","type":"string","indexed":true,"internalType":"string"}],"anonymous":false},{"type":"event","name":"TierOverwritten","inputs":[{"name":"id","type":"string","indexed":true,"internalType":"string"}],"anonymous":false},{"type":"event","name":"TierUpdated","inputs":[{"name":"id","type":"string","indexed":true,"internalType":"string"}],"anonymous":false},{"type":"event","name":"Unpaused","inputs":[{"name":"account","type":"address","indexed":false,"internalType":"address"}],"anonymous":false},{"type":"event","name":"WhitelistRootUpdated","inputs":[{"name":"id","type":"string","indexed":true,"internalType":"string"}],"anonymous":false},{"type":"error","name":"AccessControlBadConfirmation","inputs":[]},{"type":"error","name":"AccessControlUnauthorizedAccount","inputs":[{"name":"account","type":"address","internalType":"address"},{"name":"neededRole","type":"bytes32","internalType":"bytes32"}]},{"type":"error","name":"AddressEmptyCode","inputs":[{"name":"target","type":"address","internalType":"address"}]},{"type":"error","name":"CodeAlreadyExists","inputs":[]},{"type":"error","name":"CodeEmpty","inputs":[]},{"type":"error","name":"EnforcedPause","inputs":[]},{"type":"error","name":"ExpectedPause","inputs":[]},{"type":"error","name":"FailedInnerCall","inputs":[]},{"type":"error","name":"IdEmpty","inputs":[]},{"type":"error","name":"InsufficientPayment","inputs":[]},{"type":"error","name":"InvalidMerkleProof","inputs":[]},{"type":"error","name":"InvalidReferralCode","inputs":[]},{"type":"error","name":"MaxSlotsOrdered","inputs":[]},{"type":"error","name":"MaxUseCannotBeZero","inputs":[]},{"type":"error","name":"MaxUsePerWalletCannotBeZero","inputs":[]},{"type":"error","name":"MaxUsesExceeded","inputs":[]},{"type":"error","name":"NFTMintingNotEnabled","inputs":[]},{"type":"error","name":"NewTierInvalid","inputs":[]},{"type":"error","name":"NotAdmin","inputs":[]},{"type":"error","name":"PriceCannotBeZero","inputs":[]},{"type":"error","name":"PublicCapCannotBeZero","inputs":[]},{"type":"error","name":"PublicSlotsCannotBeZero","inputs":[]},{"type":"error","name":"Reentrancy","inputs":[]},{"type":"error","name":"ReferralCodeAlreadyUsed","inputs":[]},{"type":"error","name":"ReferralCodeNotActive","inputs":[]},{"type":"error","name":"TierActivationFailed","inputs":[]},{"type":"error","name":"TierIdMismatch","inputs":[]},{"type":"error","name":"TierNotActive","inputs":[]},{"type":"error","name":"TimeCannotBeZero","inputs":[]},{"type":"error","name":"WhitelistedSlotsCannotBeZero","inputs":[]},{"type":"error","name":"ZeroAddress","inputs":[]}],"bytecode":{"object":"0x608034620000cf57601f620045e638819003918201601f19168301916001600160401b03831184841017620000d3578084926040948552833981010312620000cf5780516001600160a01b03811691828203620000cf5760200151801515809103620000cf5760ff195f54165f558215620000bd57600280546001600160a81b03191690931760a09190911b60ff60a01b1617909155620000ac90620000a581620000e7565b5062000188565b506040516143a29081620002248239f35b60405163d92e233d60e01b8152600490fd5b5f80fd5b634e487b7160e01b5f52604160045260245ffd5b6001600160a01b03165f8181527fd52cfefb3f6fd7766669e08a03d2ceb3243383019e3a5fed2a519df30ee55b9260205260409020547fdf8b4c520ffe197c5343c6f5aec59570151ef9a492f2c624fd45ddde6135ec42919060ff166200018257815f52600160205260405f20815f5260205260405f20600160ff1982541617905533915f80516020620045c68339815191525f80a4600190565b50505f90565b6001600160a01b03165f8181527fecb02fa53a1c4cded3c9c659935a587fd85308771ade94819b45589568b5c71360205260409020547f7f00784ff4b2bcc5a4d7893088012f8640236dd818cb074b436759c3477c83a1919060ff166200018257815f52600160205260405f20815f5260205260405f20600160ff1982541617905533915f80516020620045c68339815191525f80a460019056fe60806040526004361015610011575f80fd5b5f3560e01c8062437c4f1461377657806301ffc9a71461372057806309b271f0146136b65780631a9489471461360e5780631ff9b6f21461357657806320b224661461332057806321c9997e146132fb578063248a9ca3146132ce5780632a0acc6a146132945780632f2ff15d14613257578063322c9d8014612c5f57806336568abe14612c185780633f4ba83a14612bb157806349aad3be14612b685780634ee91db41461297c5780635c975abb1461295b5780636ba64bc5146128f75780636e792b1814612847578063705a4069146127e3578063712ca0f8146126c55780638456cb591461265b57806391d14854146126125780639739d9b414612351578063a217fddf14612337578063a9d5927214611c2e578063ac9650d814611aa2578063b5f0d95914611a68578063c65c3c2214611a0e578063c813e95814611264578063ca8dfdda14610ef3578063cd26b32d146106f0578063d547741f146106b1578063d77836ce14610611578063dc6d46ef14610580578063dfef64da1461042e578063f851a44014610406578063fd4d3d39146102c15763fe551b05146101ba575f80fd5b346102bd5760203660031901126102bd576004356001600160401b0381116102bd5761020560206101f26102609336906004016138a0565b8160405193828580945193849201613986565b8101600381520301902061021881613a05565b9060018101549060028101549060038101549060048101546005820154600683015491600784015494600863ffffffff950154966040519a8b9a610180808d528c0190613aa7565b9860208b015260408a01526060890152608088015260a087015260c086015280821660e08601528160201c1661010085015260ff8160401c16151561012085015260018060a01b039060481c166101408401526101608301520390f35b5f80fd5b346102bd576103d560e061033b61032b6102da36613ba7565b9190604051906102e9826137e3565b606082525f602096838289809601528260408201528260608201528260808201528260a08201528260c082015201528160405193828580945193849201613986565b81016005815203019020906139a7565b60405191610348836137e3565b61035182613a05565b835260018060a01b0380600184015416928285019384526002810154604086019081526003820154606087019081526004830154906080880191825260ff6005850154169260a089019315158452600760068601549560c08b0196875201549560e08a019687526040519a8b9a898c5251610100809a8d01526101208c0190613aa7565b98511660408a01525160608901525160808801525160a087015251151560c08601525160e085015251908301520390f35b346102bd575f3660031901126102bd576002546040516001600160a01b039091168152602090f35b346102bd576020806003193601126102bd576004356001600160401b0381116102bd5761045f9036906004016138a0565b906040519061046d826137ff565b606082525f818301525f60408301525f60608301525f60808301525f60a08301525f60c08301525f60e08301526101005f81840152610120925f848201526104e56104d684610140975f898601525f610160809601528160405193828580945193849201613986565b81016003815203019020613cd9565b6040519586958587528251946105086101809687898b01526101a08a0190613aa7565b9684015160408901526040840151606089015260608401516080890152608084015160a089015260a084015160c089015260c084015160e089015260e08401519063ffffffff809216818a0152840151168188015282015115158187015260018060a01b039082015116828601520151908301520390f35b346102bd577f0d6faee8bfdacce59d9ca1de09b4234ae67dac8bc67a84725d689e3be24ee13a61060c60206105f86105d760056105e66105bf366138f3565b94918760409892985193828580945193849201613986565b810185815203019020856139a7565b019060ff801983541691151516179055565b604051918291602083526020830190613aa7565b0390a1005b346102bd5760203660031901126102bd5760043568929eee149b4bd2126890308254146106a457308255610643613e79565b801561069d575b6020816106915f8080807faf14eed14441a019959f1b785afd42b397049c183c65aa63367e1f182ae682a19760018060a01b03600254165af161068b613e07565b50613e36565b604051908152a1389055005b504761064a565b63ab143c065f526004601cfd5b346102bd5760403660031901126102bd576106ee6004356106d061395c565b90805f5260016020526106e9600160405f200154613f4d565b6140af565b005b60603660031901126102bd576004356001600160401b0381116102bd5761071b9036906004016138a0565b6024356001600160401b0381116102bd5761073a9036906004016138a0565b906044356001600160401b0381116102bd5761075a9036906004016138a0565b68929eee149b4bd2126892308454146106a45730845560405160208185516107858183858a01613986565b81016003815203019020905f60405161079d8161382e565b526107a782613cd9565b6040516107b38161382e565b5f81526107e182519160405160208185516107d18183858a01613986565b81016004815203019020906139a7565b60a060ff6004604051936107f4856137ad565b8054855263ffffffff6001820154818116602088015260201c1660408601526002810154606086015260038101546080860152015416151591015261012082015115610ecd576020610853918160405193828580945193849201613986565b81016006815203019020335f5260205263ffffffff60405f20541660c08201511115610ea75763ffffffff60e08201511642108015610edf575b610ecd5760a081015160808201518101809111610eb95760408201511115610ea75760208101805115610e9557846108c89251915191614123565b15610e83575f6040516108da8161382e565b526108e482613a05565b935f916040516108f3816137c8565b3381526109276020808301938985523460408501524260608501528860808501528160405193828580945193849201613986565b600790820190815203019020815181546001600160a01b0319166001600160a01b039190911617815591518051906001600160401b038211610db15761097060018501546139cd565b601f8111610e3f575b50602090601f8311600114610dd05760809392915f9183610dc5575b50508160011b915f199060031b1c19161760018401555b604081015160028401556060810151600384015501518051906001600160401b038211610db1576109e060048401546139cd565b601f8111610d6d575b50602090601f8311600114610d0157600492915f9183610cf6575b50508160011b915f199060031b1c1916179101555b6005830180546002850154811015610cb157610a3490614079565b90556040516020818751610a4b8183858c01613986565b81016006815203019020335f5260205260405f20805463ffffffff610a71818316614087565b169063ffffffff191617905560ff60025460a01c16610c30575b6040516001610abe8751610aa3818560208c01613986565b83019260058452602081848060a01b039503019020876139a7565b01541615610beb5784610b5b600885610b53868080602099610ba29b612710610bbf9f8f9060068f610b479361032b610b3f92600160405181610b2584610b0b8b85815193849201613986565b830192600584528581848060a01b039503019020876139a7565b015416990154958160405193828580945193849201613986565b01549061409c565b04905af161068b613e07565b015491613ca2565b905f8051602061434d833981519152604051348152606086820152610b836060820189613aa7565b9260408201528033930390a38160405193828580945193849201613986565b81016006815203019020335f52602052600160405f2001906139a7565b80546001600160401b03610bd4818316613def565b67ffffffffffffffff199092169116179055389055005b60405162461bcd60e51b815260206004820152601c60248201527f526566657272616c20636f646520646f6573206e6f74206578697374000000006044820152606490fd5b6007830154600884018054909160481c6001600160a01b031690813b156102bd575f916044839260405194859384926340c10f1960e01b845233600485015260248401525af18015610ca657610c93575b50610c8c8154614079565b9055610a8b565b610c9e91935061381b565b5f9187610c81565b6040513d5f823e3d90fd5b60405162461bcd60e51b815260206004820152601860248201527f4d6178207075626c696320736c6f7473207265616368656400000000000000006044820152606490fd5b015190508a80610a04565b90600484015f5260205f20915f5b601f1985168110610d555750918391600193600495601f19811610610d3d575b505050811b01910155610a19565b01515f1960f88460031b161c191690558a8080610d2f565b91926020600181928685015181550194019201610d0f565b600484015f5260205f20601f840160051c810160208510610daa575b601f830160051c82018110610d9f5750506109e9565b5f8155600101610d89565b5080610d89565b634e487b7160e01b5f52604160045260245ffd5b015190508b80610995565b90600185015f5260205f20915f5b601f1985168110610e27575091839160019360809695601f19811610610e0f575b505050811b0160018401556109ac565b01515f1960f88460031b161c191690558b8080610dff565b91926020600181928685015181550194019201610dde565b600185015f5260205f20601f840160051c810160208510610e7c575b601f830160051c82018110610e71575050610979565b5f8155600101610e5b565b5080610e5b565b60405163e55b462960e01b8152600490fd5b6040516316334f8560e11b8152600490fd5b60405163d077517560e01b8152600490fd5b634e487b7160e01b5f52601160045260245ffd5b604051632015bd1360e11b8152600490fd5b5063ffffffff61010082015116421161088d565b346102bd576003196060368201126102bd576004356001600160401b03918282116102bd576101009082360301126102bd5760405190610f32826137e3565b8060040135908382116102bd57610f5160e492600436918401016138a0565b8352610f5f60248201613972565b6020840152604481013560408401526064810135606084015260848101356080840152610f8e60a482016138e6565b60a084015260c481013560c0840152013560e08201526024358281116102bd57610fbc9036906004016138a0565b906044358381116102bd57610fd59036906004016138a0565b91610fde613e79565b825115610e8357604082015115611252576060820151156112405760405181519060016110146020850193610aa3818587613986565b01541661122e5760206110369161104693604051938492839251928391613986565b81016005815203019020836139a7565b8151938451908111610db15761105c82546139cd565b601f81116111e9575b506020601f821160011461115d579080611147959493927fc37f0eff9a0d30a3553913e102a0e2c6bc354afd7228579803087ac611d275d0975f92611152575b50508160011b915f199060031b1c19161781555b600760e0600183019360018060a01b0360208201511694856bffffffffffffffffffffffff60a01b82541617905560408101516002850155606081015160038501556080810151600485015561112460a08201511515600586019060ff801983541691151516179055565b60c081015160068501550151910155604051928392604084526040840190613aa7565b9060208301520390a1005b0151905087806110a5565b825f5260205f20955f5b601f19841681106111d15750917fc37f0eff9a0d30a3553913e102a0e2c6bc354afd7228579803087ac611d275d0966001926111479796959483601f198116106111b9575b505050811b0181556110b9565b01515f1960f88460031b161c191690558780806111ac565b82820151885560019097019660209283019201611167565b825f5260205f20601f830160051c81019160208410611224575b601f0160051c01905b8181106112195750611065565b5f815560010161120c565b9091508190611203565b604051636b3d055d60e11b8152600490fd5b604051634ee766c760e11b8152600490fd5b6040516384a30b4960e01b8152600490fd5b60a03660031901126102bd576004356001600160401b0381116102bd5761128f9036906004016138a0565b6024356001600160401b0381116102bd576112ae9036906004016138a0565b6044356001600160401b0381116102bd576112cd9036906004016138a0565b6064356001600160401b0381116102bd576112ec903690600401613c2e565b926084356001600160401b0381116102bd5761130c9036906004016138a0565b68929eee149b4bd2126892308454146106a4573084556113586040516020818161133c8c83815193849201613986565b810160038152030190209161135083613cd9565b973691613d79565b9486519761138861137860208b8160405193828580945193849201613986565b81016004815203019020836139a7565b9860ff60046040519b61139a8d6137ad565b80548d528c604063ffffffff6001840154818116602085015260201c169101528c606060028301549101528c60806003830154910152015416151560a08b015261012089015115610ecd5760206113fe918160405193828580945193849201613986565b81016006815203019020335f5260205263ffffffff60405f20541660c08901511115610ea75788519760405160208101903360601b82526014815261144281613849565b519020995f9a5b89518c101561148b5761145c8c8b613dc7565b51908181101561147a575f52602052600160405f205b9b019a611449565b905f52602052600160405f20611472565b8a036119fc5763ffffffff602082015116421080156119e9575b610ecd576060015160608201511115610ea757808560206114ca935192015191614123565b15610e83576114d883613a05565b946040516114e5816137c8565b3381526115196020808301938985523460408501524260608501528860808501528160405193828580945193849201613986565b600790820190815203019020815181546001600160a01b0319166001600160a01b039190911617815591518051906001600160401b038211610db15761156260018501546139cd565b601f81116119a5575b50602090601f83116001146119365760809392915f918361192b575b50508160011b915f199060031b1c19161760018401555b604081015160028401556060810151600384015501518051906001600160401b038211610db1576115d260048401546139cd565b601f81116118e7575b50602090601f831160011461187b57600492915f9183611870575b50508160011b915f199060031b1c1916179101555b604051916002611629875194602081818b019761137881838b613986565b015460036040516020818a5161164081838b613986565b8101848152030190200154111561182b5761166a6002916040516020818a516107d181838b613986565b016116758154614079565b9055604051602081875161168a818388613986565b81016006815203019020335f5260205260405f20805463ffffffff6116b0818316614087565b169063ffffffff191617905560405160208187516116cf818388613986565b81016006815203019020335f5260205261171860405f206116f963ffffffff825460201c16614087565b63ffffffff60201b82549160201b169063ffffffff60201b1916179055565b60ff60025460a01c166117b9575b604051600161173b8751610aa3818588613986565b01541615610beb5784610b5b600885610b535f808080610ba29b612710610bbf9f8f90600660209f60209361032b610b4795610b3f936001604051816117a18a51611787818588613986565b830192600584528681848060a01b039503019020886139a7565b0154169a015496604051938492839251928391613986565b6007830154600884018054909160481c6001600160a01b031690813b156102bd575f916044839260405194859384926340c10f1960e01b845233600485015260248401525af18015610ca65761181c575b506118158154614079565b9055611726565b6118259061381b565b8761180a565b60405162461bcd60e51b815260206004820152601d60248201527f4d61782077686974656c697374656420736c6f747320726561636865640000006044820152606490fd5b015190508a806115f6565b90600484015f5260205f20915f5b601f19851681106118cf5750918391600193600495601f198116106118b7575b505050811b0191015561160b565b01515f1960f88460031b161c191690558a80806118a9565b91926020600181928685015181550194019201611889565b600484015f5260205f20601f840160051c810160208510611924575b601f830160051c820181106119195750506115db565b5f8155600101611903565b5080611903565b015190508b80611587565b90600185015f5260205f20915f5b601f198516811061198d575091839160019360809695601f19811610611975575b505050811b01600184015561159e565b01515f1960f88460031b161c191690558b8080611965565b91926020600181928685015181550194019201611944565b600185015f5260205f20601f840160051c8101602085106119e2575b601f830160051c820181106119d757505061156b565b5f81556001016119c1565b50806119c1565b5063ffffffff60408201511642116114a5565b60405163582f497d60e11b8152600490fd5b346102bd5760206001600160401b03611a5e82611a42611a2d36613ba7565b92908160405193828580945193849201613986565b81016006815203019020335f528452600160405f2001906139a7565b5416604051908152f35b346102bd575f3660031901126102bd5760206040517f7f00784ff4b2bcc5a4d7893088012f8640236dd818cb074b436759c3477c83a18152f35b346102bd576020806003193601126102bd576001600160401b036004358181116102bd57611ad4903690600401613c2e565b604092919251611ae38161382e565b5f8152848101611af283613cc2565b94611b006040519687613864565b838652611b0c84613cc2565b601f1901875f5b828110611c1f575050505f5b848110611b8357604080518981528851818b018190525f92600582901b83018101918b8d01918d9085015b828710611b575785850386f35b909192938280611b73600193603f198a82030186528851613aa7565b9601920196019592919092611b4a565b8060051b820135601e19833603018112156102bd578201908135918783116102bd5789019180360383136102bd575f80600194611be3611bef8e611c03968c8c60405195838794868601998a37840191858301938a855251938491613986565b01038084520182613864565b5190305af4611bfc613e07565b90306142e9565b611c0d828a613dc7565b52611c188189613dc7565b5001611b1f565b60608982018301528101611b13565b60803660031901126102bd576004356001600160401b0381116102bd57611c599036906004016138a0565b6024356001600160401b0381116102bd57611c789036906004016138a0565b906044356001600160401b0381116102bd57611c989036906004016138a0565b6064356001600160401b0381116102bd57611cb7903690600401613c2e565b92909168929eee149b4bd2126891308354146106a457611cec6020611d08923086558160405193828580945193849201613986565b8101600381520301902093611d0085613cd9565b953691613d79565b945f604051611d168161382e565b52845193611d426040516020818851611d328183858d01613986565b81016004815203019020846139a7565b9460ff600460405197611d54896137ad565b8054895263ffffffff600182015481811660208c015260201c1660408a0152600281015460608a0152600381015460808a0152015416151560a087015261012087015115610ecd576020611db5918160405193828580945193849201613986565b81016006815203019020335f5260205263ffffffff60405f20541660c08701511115610ea75784519560405160208101903360601b825260148152611df981613849565b519020955f965b8951881015611e4257611e13888b613dc7565b519081811015611e31575f52602052600160405f205b970196611e00565b905f52602052600160405f20611e29565b88036119fc5763ffffffff60208201511642108015612324575b610ecd576060015160608201511115610ea7576020015134106123125760405192611e868461382e565b5f8452611e9282613a05565b92604051611e9f816137c8565b338152611ed36020808301938785523460408501524260608501528860808501528160405193828580945193849201613986565b600790820190815203019020815181546001600160a01b0319166001600160a01b039190911617815591518051906001600160401b038211610db157611f1c60018501546139cd565b601f81116122ce575b50602090601f831160011461225f5760809392915f9183612254575b50508160011b915f199060031b1c19161760018401555b604081015160028401556060810151600384015501518051906001600160401b038211610db157611f8c60048401546139cd565b601f811161220c575b50602090601f83116001146121a057600492915f9183612195575b50508160011b915f199060031b1c1916179101555b604051906002611fe38551936020818189019661137881838a613986565b015460036040516020818851611ffa81838a613986565b8101848152030190200154111561182b5761208a91600261202960209360405185818a516107d181838a613986565b016120348154614079565b905560405182818751612048818387613986565b81016006815203019020335f52825260405f20805463ffffffff61206d818316614087565b169063ffffffff1916179055604051809381928751928391613986565b81016006815203019020335f526020526120b460405f206116f963ffffffff825460201c16614087565b60ff60025460a01c1661210b575b6120de60085f8051602061434d83398151915292015492613ca2565b926120fa60405191348352606060208401526060830190613aa7565b9260408201528033930390a3389055005b60018060a01b03600782015460481c1660088201918254823b156102bd575f926044849260405195869384926340c10f1960e01b845233600485015260248401525af1908115610ca6575f8051602061434d833981519152936120de93600893612186575b5061217b8154614079565b9055925050506120c2565b61218f9061381b565b88612170565b015190508980611fb0565b90600484015f5260205f20915f5b601f19851681106121f45750918391600193600495601f198116106121dc575b505050811b01910155611fc5565b01515f1960f88460031b161c191690558980806121ce565b919260206001819286850151815501940192016121ae565b600484015f5260205f20601f840160051c8101916020851061224a575b601f0160051c01905b81811061223f5750611f95565b5f8155600101612232565b9091508190612229565b015190508a80611f41565b90600185015f5260205f20915f5b601f19851681106122b6575091839160019360809695601f1981161061229e575b505050811b016001840155611f58565b01515f1960f88460031b161c191690558a808061228e565b9192602060018192868501518155019401920161226d565b600185015f5260205f20601f840160051c81016020851061230b575b601f830160051c82018110612300575050611f25565b5f81556001016122ea565b50806122ea565b60405163cd1c886760e01b8152600490fd5b5063ffffffff6040820151164211611e5c565b346102bd575f3660031901126102bd5760206040515f8152f35b346102bd5760403660031901126102bd576001600160401b036004358181116102bd57612382903690600401613add565b906024358181116102bd5761239b9036906004016138a0565b906123a4613e79565b6040519282516123c16020958681818801946104d6818388613986565b906040830190815160408401511161260057606084019260608451910151116126005786612403916123f286613f6f565b604051809381928a51928391613986565b810160038152030190209383518051918211610db15761242386546139cd565b601f81116125bd575b508790601f831160011461254f5797826101609593600897959361251e9b5f92612544575b50508160011b915f199060031b1c19161787555b83015160018701555160028601555160038501556080810151600485015560a0810151600585015560c08101516006850155612514600785016124e163ffffffff8060e08601511663ffffffff1984541617835561010085015116829063ffffffff60201b82549160201b169063ffffffff60201b1916179055565b610120830151815460ff60401b191690151560401b60ff60401b161781556101408301516001600160a01b031690613c5e565b0151910155613ca2565b7f7717eddc80eec2c0dcabc1d0c611471a2a3d656860341671b624831d4c08385a5f80a2005b015190508b80612451565b90601f19831691875f52895f20925f5b8181106125a6575093600897959361251e9b93600193836101609a981061258e575b505050811b018755612465565b01515f1960f88460031b161c191690558b8080612581565b92938b60018192878601518155019501930161255f565b865f52885f20601f840160051c8101918a85106125f6575b601f0160051c01905b8181106125eb575061242c565b5f81556001016125de565b90915081906125d5565b6040516363b3ecc360e11b8152600490fd5b346102bd5760403660031901126102bd5761262b61395c565b6004355f52600160205260405f209060018060a01b03165f52602052602060ff60405f2054166040519015158152f35b346102bd575f3660031901126102bd57612673613ef2565b5f5460ff81166126b35760019060ff1916175f557f62e78cea01bee320cd4e420270b5ea74000d11b0c9f74754ebdbfc544b05a2586020604051338152a1005b60405163d93c066560e01b8152600490fd5b346102bd576020806003193601126102bd576004356001600160401b0381116102bd57816126fa6127329236906004016138a0565b6060608060405161270a816137c8565b5f815282858201525f60408201525f8382015201528160405193828580945193849201613986565b810160078152030190206127df6040519161274c836137c8565b80546001600160a01b0390811684529361276860018301613a05565b918185019283526127c060028201549360408701948552612797600460038501549460608a0195865201613a05565b9360808801948552604051988998828a525116908801525160a0604088015260c0870190613aa7565b9251606086015251608085015251838203601f190160a0850152613aa7565b0390f35b346102bd5760c06127fb60206107d1611a2d36613ba7565b80549060018101549063ffffffff60028201549060ff600460038501549401541693604051958652818116602087015260201c16604085015260608401526080830152151560a0820152f35b346102bd5760203660031901126102bd576004356001600160401b0381116102bd57612886602061287e60079336906004016138a0565b6101f2613e79565b8101600381520301902001805460ff8160401c1615806128e7575b806128d4575b156128c25760ff60401b191668010000000000000000179055005b604051630f7202e360e21b8152600490fd5b5063ffffffff8160201c164211156128a7565b504263ffffffff821611156128a1565b346102bd5761290536613bed565b61290d613e79565b60ff60025460a01c161561294957600761293960206106ee948160405193828580945193849201613986565b8101600381520301902001613c5e565b604051633445bf4560e11b8152600490fd5b346102bd575f3660031901126102bd57602060ff5f54166040519015158152f35b346102bd576101203660031901126102bd576001600160401b036004358181116102bd576129ae9036906004016138a0565b906024359081116102bd576129c79036906004016138a0565b9060c03660431901126102bd576040516129e0816137ad565b60443581526064359063ffffffff9081831683036102bd576020810192835260843582811681036102bd57604082019081526060820160a43581526080830160c435815260e4359182151583036102bd5760a08501928352612a40613e79565b845115612b3057612ada8897612afc97600496612aa1612b0a9d612a9260208e6040518281818451940193612a76818387613986565b810160038152030190209f604051938492839251928391613986565b81018d815203019020906139a7565b985189558160018a0193511663ffffffff19845416178355511663ffffffff60201b82549160201b169063ffffffff60201b1916179055565b51600285015551600384015551151591019060ff801983541691151516179055565b600361010435910155613ca2565b7ff7b7028c7dca6079f26826d2bef0f5fc1b0605f1848afc3e063a87375e7e04f15f80a2005b60405162461bcd60e51b815260206004820152601060248201526f0726f6f742063616e6e6f7420626520360841b6044820152606490fd5b346102bd576020612b7b611a2d36613bed565b810160068152030190209060018060a01b03165f526020526040805f205463ffffffff825191818116835260201c166020820152f35b346102bd575f3660031901126102bd57612bc9613ef2565b5f5460ff811615612c065760ff19165f557f5db9ee0a495bf2e6ff9c91a7834c1ba4fdd244a5e8aa4e537bd38aeae4b073aa6020604051338152a1005b604051638dfc202b60e01b8152600490fd5b346102bd5760403660031901126102bd57612c3161395c565b336001600160a01b03821603612c4d576106ee906004356140af565b60405163334bd91960e11b8152600490fd5b612c6836613ba7565b68929eee149b4bd2126891308354146106a4576020612c97913085558160405193828580945193849201613986565b81016003815203019020905f604051612caf8161382e565b52612cb982613cd9565b5f604051612cc68161382e565b52604051612cd38161382e565b5f81528151612cf460405192825193602081818601966107d181838a613986565b60a060ff600460405193612d07856137ad565b8054855263ffffffff6001820154818116602088015260201c1660408601526002810154606086015260038101546080860152015416151591015261012083015115610ecd57612d6591602091604051938492839251928391613986565b81016006815203019020335f5260205263ffffffff60405f20541660c08201511115610ea75763ffffffff60e08201511642108015613243575b610ecd5760a081015160808201518101809111610eb95760408201511115610ea757602001805115610e95575134106123125760405191612ddf8361382e565b5f83525f604051612def8161382e565b525f612dfa82613a05565b9260405190612e08826137c8565b338252612e3c6020808401928784523460408601524260608601528860808601528160405193828580945193849201613986565b600790820190815203019020825181546001600160a01b0319166001600160a01b039190911617815590518051906001600160401b038211610db157612e8560018401546139cd565b601f81116131ff575b50602090601f831160011461318e579180608094926004945f92613183575b50508160011b915f199060031b1c19161760018201555b6040840151600282015560608401516003820155019101518051906001600160401b038211610db1578190612ef984546139cd565b601f8111613133575b50602090601f83116001146130cf575f926130c4575b50508160011b915f199060031b1c19161790555b6005820180546002840154811015610cb157612f4790614079565b90556040519083519160208181870194612f62818388613986565b81016006815203019020335f5260205260405f20805463ffffffff612f88818316614087565b169063ffffffff19161790558060ff60025460a01c1661304c575b612fc6575b50506120de60085f8051602061434d83398151915292015492613ca2565b6040516001612ff68651612fdb818588613986565b83019260058452602081848060a01b039503019020886139a7565b01541615610beb57826130458280806008955f8051602061434d83398151915298612710610b478c60068f610b3f9061032b6120de9f6020906001604051816117a18a51611787818588613986565b9250612fa8565b50600783015460088401805490929160481c6001600160a01b031690813b156102bd575f916044839260405194859384926340c10f1960e01b845233600485015260248401525af18015610ca6576130b3575b50816130ac829354614079565b9055612fa3565b6130bd915061381b565b5f8761309f565b015190508880612f18565b5f858152602081209350601f198516905b81811061311b5750908460019594939210613103575b505050811b019055612f2c565b01515f1960f88460031b161c191690558880806130f6565b929360206001819287860151815501950193016130e0565b909150835f5260205f20601f840160051c81019160208510613179575b90601f859493920160051c01905b81811061316b5750612f02565b5f815584935060010161315e565b9091508190613150565b015190508b80612ead565b90600184015f5260205f20915f5b601f19851681106131e75750926080949260019260049583601f198116106131cf575b505050811b016001820155612ec4565b01515f1960f88460031b161c191690558b80806131bf565b9192602060018192868501518155019401920161319c565b600184015f5260205f20601f840160051c81016020851061323c575b601f830160051c82018110613231575050612e8e565b5f815560010161321b565b508061321b565b5063ffffffff610100820151164211612d9f565b346102bd5760403660031901126102bd576106ee60043561327661395c565b90805f52600160205261328f600160405f200154613f4d565b613ffb565b346102bd575f3660031901126102bd5760206040517fdf8b4c520ffe197c5343c6f5aec59570151ef9a492f2c624fd45ddde6135ec428152f35b346102bd5760203660031901126102bd576004355f5260016020526020600160405f200154604051908152f35b346102bd575f3660031901126102bd57602060ff60025460a01c166040519015158152f35b346102bd576020806003193601126102bd576001600160401b03906004358281116102bd57613353903690600401613add565b9061335c613e79565b61336582613f6f565b61337e8183518160405193828580945193849201613986565b81016003815203019020908251938451908111610db15761339f83546139cd565b601f8111613533575b5081601f82116001146134cf57819061349e965f926134c4575b50508160011b915f199060031b1c19161782555b820151600182015560408201516002820155606082015160038201556080820151600482015560a0820151600582015560c0820151600682015561348d6007820161345a63ffffffff8060e08701511663ffffffff1984541617835561010086015116829063ffffffff60201b82549160201b169063ffffffff60201b1916179055565b610120840151815460ff60401b191690151560401b60ff60401b161781556101408401516001600160a01b031690613c5e565b600861016083015191015551613ca2565b7f6198e4820b4a4269da28d96e7a6613dc7a02f06ed9552cc336458d0d3c55ae535f80a2005b0151905086806133c2565b601f19821695845f52835f20965f5b81811061351c57509161349e9791846001959410613504575b505050811b0182556133d6565b01515f1960f88460031b161c191690558680806134f7565b8383015189556001909801979285019285016134de565b835f52825f20601f830160051c81019184841061356c575b601f0160051c01905b81811061356157506133a8565b5f8155600101613554565b909150819061354b565b346102bd5760403660031901126102bd5761358f613946565b61359761395c565b68929eee149b4bd2126891308354146106a4573083556135b5613e79565b6370a082315f5230602052602060346024601c845afa601f3d11161561360157604460105f809360209560145263a9059cbb60601b82525af13d1560015f511417161561360157389055005b6390b8ec185f526004601cfd5b346102bd5760203660031901126102bd576004356001600160401b0381116102bd5760206101f26136439236906004016138a0565b60079082019081520301902080546001600160a01b03166127df61366960018401613a05565b92600281015490613681600460038301549201613a05565b9061369e604051968796875260a0602088015260a0870190613aa7565b92604086015260608501528382036080850152613aa7565b346102bd5760403660031901126102bd576136cf613946565b6024356001600160401b0381116102bd5760206101f26136f39236906004016138a0565b810160068152030190209060018060a01b03165f52602052602063ffffffff60405f205416604051908152f35b346102bd5760203660031901126102bd5760043563ffffffff60e01b81168091036102bd57602090637965db0b60e01b8114908115613765575b506040519015158152f35b6301ffc9a760e01b1490508261375a565b346102bd576106ee61379e60046105e66020613791366138f3565b95916101f2939193613e79565b810186815203019020906139a7565b60c081019081106001600160401b03821117610db157604052565b60a081019081106001600160401b03821117610db157604052565b61010081019081106001600160401b03821117610db157604052565b61018081019081106001600160401b03821117610db157604052565b6001600160401b038111610db157604052565b602081019081106001600160401b03821117610db157604052565b604081019081106001600160401b03821117610db157604052565b90601f801991011681019081106001600160401b03821117610db157604052565b6001600160401b038111610db157601f01601f191660200190565b81601f820112156102bd578035906138b782613885565b926138c56040519485613864565b828452602083830101116102bd57815f926020809301838601378301015290565b359081151582036102bd57565b9060606003198301126102bd576001600160401b036004358181116102bd578361391f916004016138a0565b926024359182116102bd57613936916004016138a0565b9060443580151581036102bd5790565b600435906001600160a01b03821682036102bd57565b602435906001600160a01b03821682036102bd57565b35906001600160a01b03821682036102bd57565b5f5b8381106139975750505f910152565b8181015183820152602001613988565b6020906139c1928260405194838680955193849201613986565b82019081520301902090565b90600182811c921680156139fb575b60208310146139e757565b634e487b7160e01b5f52602260045260245ffd5b91607f16916139dc565b9060405191825f8254613a17816139cd565b908184526020946001916001811690815f14613a855750600114613a47575b505050613a4592500383613864565b565b5f90815285812095935091905b818310613a6d575050613a4593508201015f8080613a36565b85548884018501529485019487945091830191613a54565b92505050613a4594925060ff191682840152151560051b8201015f8080613a36565b90602091613ac081518092818552858086019101613986565b601f01601f1916010190565b359063ffffffff821682036102bd57565b919091610180818403126102bd5760405190613af8826137ff565b81938135906001600160401b0382116102bd57613b169183016138a0565b82526020810135602083015260408101356040830152606081013560608301526080810135608083015260a081013560a083015260c081013560c0830152613b6060e08201613acc565b60e0830152610100613b73818301613acc565b90830152610120613b858183016138e6565b90830152610140613b97818301613972565b9083015261016080910135910152565b9060406003198301126102bd576001600160401b036004358181116102bd5783613bd3916004016138a0565b926024359182116102bd57613bea916004016138a0565b90565b60406003198201126102bd57600435906001600160401b0382116102bd57613c17916004016138a0565b906024356001600160a01b03811681036102bd5790565b9181601f840112156102bd578235916001600160401b0383116102bd576020808501948460051b0101116102bd57565b80547fffffff0000000000000000000000000000000000000000ffffffffffffffffff1660489290921b6901000000000000000000600160e81b0316919091179055565b613cba90602060405192828480945193849201613986565b810103902090565b6001600160401b038111610db15760051b60200190565b90604051613ce6816137ff565b61016060088294613cf681613a05565b845260018101546020850152600281015460408501526003810154606085015260048101546080850152600581015460a0850152600681015460c0850152600781015463ffffffff80821660e08701528160201c1661010086015260ff8160401c16151561012086015260018060a01b039060481c166101408501520154910152565b9291613d8482613cc2565b91613d926040519384613864565b829481845260208094019160051b81019283116102bd57905b828210613db85750505050565b81358152908301908301613dab565b8051821015613ddb5760209160051b010190565b634e487b7160e01b5f52603260045260245ffd5b6001600160401b03809116908114610eb95760010190565b3d15613e31573d90613e1882613885565b91613e266040519384613864565b82523d5f602084013e565b606090565b15613e3d57565b60405162461bcd60e51b81526020600482015260146024820152732330b4b632b2103a379039b2b7321022ba3432b960611b6044820152606490fd5b335f9081527fd52cfefb3f6fd7766669e08a03d2ceb3243383019e3a5fed2a519df30ee55b9260205260409020547fdf8b4c520ffe197c5343c6f5aec59570151ef9a492f2c624fd45ddde6135ec429060ff1615613ed45750565b6044906040519063e2517d3f60e01b82523360048301526024820152fd5b335f9081527fecb02fa53a1c4cded3c9c659935a587fd85308771ade94819b45589568b5c71360205260409020547f7f00784ff4b2bcc5a4d7893088012f8640236dd818cb074b436759c3477c83a19060ff1615613ed45750565b805f52600160205260405f20335f5260205260ff60405f20541615613ed45750565b80515115613fe957602081015115610e9557604081015115613fd75763ffffffff8060e08301511615613fc5576101008201511615613fc55760c0015115613fb357565b604051630bfeece360e41b8152600490fd5b604051639d8b09cb60e01b8152600490fd5b604051632d4711cf60e11b8152600490fd5b60405163013f399960e61b8152600490fd5b90815f52600160205260405f209060018060a01b031690815f5260205260ff60405f205416155f1461407357815f52600160205260405f20815f5260205260405f20600160ff1982541617905533917f2f8788117e7eff1d82e926ec794901d17c78024a50270940304540a733656f0d5f80a4600190565b50505f90565b5f198114610eb95760010190565b63ffffffff809116908114610eb95760010190565b81810292918115918404141715610eb957565b90815f52600160205260405f209060018060a01b031690815f5260205260ff60405f2054165f1461407357815f52600160205260405f20815f5260205260405f2060ff19815416905533917ff6391f5c32d9c69d2a47ea670b442974b53935d1edc7fd64eb21e047a839171b5f80a4600190565b9290926040928351946141548351966020818187019961414481838d613986565b81016005815203019020826139a7565b958551614160816137e3565b61416988613a05565b815260018060a01b03908160018a01541690602081019282845260028b0154938a830194855260038c0154976060840198895260049c8d810154956080860196875260ff6005830154169560a08101961515875260e0600760068501549460c084019586520154910152156142d95786518651116142c9575190612710918203908282116142b657906141fb9161409c565b0434106142a65751161515908161429b575b5061422257875163e55b462960e01b81528990fd5b51905111938461424b575b505050506142435750516338ee824160e21b8152fd5b915050600190565b6001600160401b03939450602061428d9392614271928951938492839251928391613986565b81016006815203019020335f526020526001865f2001906139a7565b54169051115f80808061422d565b90505115155f61420d565b8a5163cd1c886760e01b81528c90fd5b60118f634e487b7160e01b5f525260245ffd5b8c5163ea7b358b60e01b81528e90fd5b8c5163e55b462960e01b81528e90fd5b9061431057508051156142fe57805190602001fd5b604051630a12f52160e11b8152600490fd5b81511580614343575b614321575090565b604051639996b31560e01b81526001600160a01b039091166004820152602490fd5b50803b1561431956fe619d922cc202d923ecd6ba322c83988048f72ce5b30054e92709d325de85b190a2646970667358221220089f61b4d9aee813e5c16d71d073c429da5cfe0ca74f5a91c78a4020eee7661464736f6c634300081800332f8788117e7eff1d82e926ec794901d17c78024a50270940304540a733656f0d","linkReferences":{}},"methodIdentifiers":{"ADMIN()":"2a0acc6a","DEFAULT_ADMIN_ROLE()":"a217fddf","NFTMintingFeature()":"21c9997e","PAUSE_AUTHORITY()":"b5f0d959","addReferralCode((string,address,uint256,uint256,uint256,bool,uint256,uint256),string,string)":"ca8dfdda","addWhitelistConfig(string,string,(bytes32,uint32,uint32,uint256,uint256,bool),uint256)":"4ee91db4","admin()":"f851a440","createTier((string,uint256,uint256,uint256,uint256,uint256,uint256,uint32,uint32,bool,address,uint256))":"20b22466","getOrder(string)":"712ca0f8","getReferral(string,string)":"fd4d3d39","getReferralUses(string,string)":"c65c3c22","getRoleAdmin(bytes32)":"248a9ca3","getTier(string)":"dfef64da","getUserSlotCount(address,string)":"09b271f0","grantRole(bytes32,address)":"2f2ff15d","hasRole(bytes32,address)":"91d14854","multicall(bytes[])":"ac9650d8","order(string,string)":"322c9d80","orderReferral(string,string,string)":"cd26b32d","orderWhitelist(string,string,string,bytes32[])":"a9d59272","orderWhitelistReferral(string,string,string,bytes32[],string)":"c813e958","orders(string)":"1a948947","overwriteTier((string,uint256,uint256,uint256,uint256,uint256,uint256,uint32,uint32,bool,address,uint256),string)":"9739d9b4","pause()":"8456cb59","paused()":"5c975abb","renounceRole(bytes32,address)":"36568abe","rescueFunds(address,address)":"1ff9b6f2","revokeRole(bytes32,address)":"d547741f","setNFTAddress(string,address)":"6ba64bc5","setReferralCodeActive(string,string,bool)":"dc6d46ef","setWhitelistActive(string,string,bool)":"00437c4f","startSale(string)":"6e792b18","supportsInterface(bytes4)":"01ffc9a7","tiers(string)":"fe551b05","unpause()":"3f4ba83a","userOrders(string,address)":"49aad3be","whitelists(string,string)":"705a4069","withdrawAdmin(uint256)":"d77836ce"},"id":35}